{
  "_format": "hh-sol-artifact-1",
  "contractName": "DexAggregator",
  "sourceName": "contracts/DexAggregator.sol",
  "abi": [
    {
      "anonymous": false,
      "inputs": [
        {
          "indexed": false,
          "internalType": "address",
          "name": "ammAddress",
          "type": "address"
        },
        {
          "indexed": false,
          "internalType": "uint256",
          "name": "makerFee",
          "type": "uint256"
        },
        {
          "indexed": false,
          "internalType": "uint256",
          "name": "takerFee",
          "type": "uint256"
        },
        {
          "indexed": false,
          "internalType": "uint256",
          "name": "liquidityToken1",
          "type": "uint256"
        },
        {
          "indexed": false,
          "internalType": "uint256",
          "name": "liquidityToken2",
          "type": "uint256"
        },
        {
          "indexed": false,
          "internalType": "string",
          "name": "name",
          "type": "string"
        }
      ],
      "name": "DexAdded",
      "type": "event"
    },
    {
      "anonymous": false,
      "inputs": [
        {
          "indexed": true,
          "internalType": "address",
          "name": "user",
          "type": "address"
        },
        {
          "indexed": true,
          "internalType": "address",
          "name": "ammAddress",
          "type": "address"
        },
        {
          "indexed": true,
          "internalType": "address",
          "name": "tokenIn",
          "type": "address"
        },
        {
          "indexed": false,
          "internalType": "address",
          "name": "tokenOut",
          "type": "address"
        },
        {
          "indexed": false,
          "internalType": "uint256",
          "name": "amountIn",
          "type": "uint256"
        },
        {
          "indexed": false,
          "internalType": "uint256",
          "name": "amountOut",
          "type": "uint256"
        },
        {
          "indexed": false,
          "internalType": "uint256",
          "name": "timestamp",
          "type": "uint256"
        },
        {
          "indexed": false,
          "internalType": "bytes32",
          "name": "txHash",
          "type": "bytes32"
        },
        {
          "indexed": false,
          "internalType": "string",
          "name": "ammName",
          "type": "string"
        }
      ],
      "name": "SwapExecuted",
      "type": "event"
    },
    {
      "anonymous": false,
      "inputs": [
        {
          "indexed": false,
          "internalType": "string",
          "name": "name",
          "type": "string"
        },
        {
          "indexed": false,
          "internalType": "string",
          "name": "symbol",
          "type": "string"
        },
        {
          "indexed": false,
          "internalType": "address",
          "name": "tokenAddress",
          "type": "address"
        }
      ],
      "name": "TokenAdded",
      "type": "event"
    },
    {
      "inputs": [
        {
          "internalType": "address",
          "name": "_ammAddress",
          "type": "address"
        },
        {
          "internalType": "uint256",
          "name": "_makerFee",
          "type": "uint256"
        },
        {
          "internalType": "uint256",
          "name": "_takerFee",
          "type": "uint256"
        },
        {
          "internalType": "uint256",
          "name": "_liquidityToken1",
          "type": "uint256"
        },
        {
          "internalType": "uint256",
          "name": "_liquidityToken2",
          "type": "uint256"
        },
        {
          "internalType": "string",
          "name": "_name",
          "type": "string"
        }
      ],
      "name": "addDex",
      "outputs": [],
      "stateMutability": "nonpayable",
      "type": "function"
    },
    {
      "inputs": [
        {
          "internalType": "string",
          "name": "_name",
          "type": "string"
        },
        {
          "internalType": "string",
          "name": "_symbol",
          "type": "string"
        },
        {
          "internalType": "address",
          "name": "_tokenAddress",
          "type": "address"
        }
      ],
      "name": "addToken",
      "outputs": [],
      "stateMutability": "nonpayable",
      "type": "function"
    },
    {
      "inputs": [
        {
          "internalType": "uint256",
          "name": "",
          "type": "uint256"
        }
      ],
      "name": "dexes",
      "outputs": [
        {
          "internalType": "address",
          "name": "ammAddress",
          "type": "address"
        },
        {
          "internalType": "uint256",
          "name": "makerFee",
          "type": "uint256"
        },
        {
          "internalType": "uint256",
          "name": "takerFee",
          "type": "uint256"
        },
        {
          "internalType": "uint256",
          "name": "liquidityToken1",
          "type": "uint256"
        },
        {
          "internalType": "uint256",
          "name": "liquidityToken2",
          "type": "uint256"
        },
        {
          "internalType": "string",
          "name": "name",
          "type": "string"
        }
      ],
      "stateMutability": "view",
      "type": "function"
    },
    {
      "inputs": [
        {
          "internalType": "address",
          "name": "ammAddress",
          "type": "address"
        },
        {
          "internalType": "address",
          "name": "tokenIn",
          "type": "address"
        },
        {
          "internalType": "address",
          "name": "tokenOut",
          "type": "address"
        },
        {
          "internalType": "uint256",
          "name": "amountIn",
          "type": "uint256"
        },
        {
          "internalType": "uint256",
          "name": "amountOut",
          "type": "uint256"
        },
        {
          "internalType": "bytes32",
          "name": "transactionHash",
          "type": "bytes32"
        },
        {
          "internalType": "string",
          "name": "ammName",
          "type": "string"
        }
      ],
      "name": "executeSwap",
      "outputs": [],
      "stateMutability": "nonpayable",
      "type": "function"
    },
    {
      "inputs": [],
      "name": "getDexes",
      "outputs": [
        {
          "components": [
            {
              "internalType": "address",
              "name": "ammAddress",
              "type": "address"
            },
            {
              "internalType": "uint256",
              "name": "makerFee",
              "type": "uint256"
            },
            {
              "internalType": "uint256",
              "name": "takerFee",
              "type": "uint256"
            },
            {
              "internalType": "uint256",
              "name": "liquidityToken1",
              "type": "uint256"
            },
            {
              "internalType": "uint256",
              "name": "liquidityToken2",
              "type": "uint256"
            },
            {
              "internalType": "string",
              "name": "name",
              "type": "string"
            }
          ],
          "internalType": "struct DexAggregator.Dex[]",
          "name": "",
          "type": "tuple[]"
        }
      ],
      "stateMutability": "view",
      "type": "function"
    },
    {
      "inputs": [],
      "name": "getSwapHistory",
      "outputs": [
        {
          "components": [
            {
              "internalType": "address",
              "name": "user",
              "type": "address"
            },
            {
              "internalType": "address",
              "name": "ammAddress",
              "type": "address"
            },
            {
              "internalType": "address",
              "name": "tokenIn",
              "type": "address"
            },
            {
              "internalType": "address",
              "name": "tokenOut",
              "type": "address"
            },
            {
              "internalType": "uint256",
              "name": "amountIn",
              "type": "uint256"
            },
            {
              "internalType": "uint256",
              "name": "amountOut",
              "type": "uint256"
            },
            {
              "internalType": "uint256",
              "name": "timestamp",
              "type": "uint256"
            },
            {
              "internalType": "bytes32",
              "name": "txHash",
              "type": "bytes32"
            },
            {
              "internalType": "string",
              "name": "ammName",
              "type": "string"
            }
          ],
          "internalType": "struct DexAggregator.Swap[]",
          "name": "",
          "type": "tuple[]"
        }
      ],
      "stateMutability": "view",
      "type": "function"
    },
    {
      "inputs": [],
      "name": "getTokens",
      "outputs": [
        {
          "components": [
            {
              "internalType": "string",
              "name": "name",
              "type": "string"
            },
            {
              "internalType": "string",
              "name": "symbol",
              "type": "string"
            },
            {
              "internalType": "address",
              "name": "tokenAddress",
              "type": "address"
            }
          ],
          "internalType": "struct DexAggregator.Token[]",
          "name": "",
          "type": "tuple[]"
        }
      ],
      "stateMutability": "view",
      "type": "function"
    },
    {
      "inputs": [
        {
          "internalType": "uint256",
          "name": "",
          "type": "uint256"
        }
      ],
      "name": "swapHistory",
      "outputs": [
        {
          "internalType": "address",
          "name": "user",
          "type": "address"
        },
        {
          "internalType": "address",
          "name": "ammAddress",
          "type": "address"
        },
        {
          "internalType": "address",
          "name": "tokenIn",
          "type": "address"
        },
        {
          "internalType": "address",
          "name": "tokenOut",
          "type": "address"
        },
        {
          "internalType": "uint256",
          "name": "amountIn",
          "type": "uint256"
        },
        {
          "internalType": "uint256",
          "name": "amountOut",
          "type": "uint256"
        },
        {
          "internalType": "uint256",
          "name": "timestamp",
          "type": "uint256"
        },
        {
          "internalType": "bytes32",
          "name": "txHash",
          "type": "bytes32"
        },
        {
          "internalType": "string",
          "name": "ammName",
          "type": "string"
        }
      ],
      "stateMutability": "view",
      "type": "function"
    },
    {
      "inputs": [
        {
          "internalType": "uint256",
          "name": "",
          "type": "uint256"
        }
      ],
      "name": "tokens",
      "outputs": [
        {
          "internalType": "string",
          "name": "name",
          "type": "string"
        },
        {
          "internalType": "string",
          "name": "symbol",
          "type": "string"
        },
        {
          "internalType": "address",
          "name": "tokenAddress",
          "type": "address"
        }
      ],
      "stateMutability": "view",
      "type": "function"
    }
  ],
  "bytecode": "0x608060405234801561001057600080fd5b50611ed5806100206000396000f3fe608060405234801561001057600080fd5b50600436106100935760003560e01c806377943118116100665780637794311814610155578063a66f4d6214610171578063aa6ca8081461018d578063fa3d24f2146101ab578063fda493c9146101c757610093565b80630ddd03ba146100985780634f64b2be146100d05780636338a7c01461010257806364b2a73c14610137575b600080fd5b6100b260048036038101906100ad91906110ab565b6101e5565b6040516100c7999897969594939291906111d1565b60405180910390f35b6100ea60048036038101906100e591906110ab565b61034b565b6040516100f993929190611265565b60405180910390f35b61011c600480360381019061011791906110ab565b6104b5565b60405161012e969594939291906112aa565b60405180910390f35b61013f6105a9565b60405161014c9190611510565b60405180910390f35b61016f600480360381019061016a91906116bf565b61081b565b005b61018b6004803603810190610186919061177d565b610aca565b005b610195610c08565b6040516101a2919061193f565b60405180910390f35b6101c560048036038101906101c09190611961565b610de1565b005b6101cf610ef2565b6040516101dc9190611b37565b60405180910390f35b600281815481106101f557600080fd5b90600052602060002090600902016000915090508060000160009054906101000a900473ffffffffffffffffffffffffffffffffffffffff16908060010160009054906101000a900473ffffffffffffffffffffffffffffffffffffffff16908060020160009054906101000a900473ffffffffffffffffffffffffffffffffffffffff16908060030160009054906101000a900473ffffffffffffffffffffffffffffffffffffffff16908060040154908060050154908060060154908060070154908060080180546102c890611b88565b80601f01602080910402602001604051908101604052809291908181526020018280546102f490611b88565b80156103415780601f1061031657610100808354040283529160200191610341565b820191906000526020600020905b81548152906001019060200180831161032457829003601f168201915b5050505050905089565b6000818154811061035b57600080fd5b906000526020600020906003020160009150905080600001805461037e90611b88565b80601f01602080910402602001604051908101604052809291908181526020018280546103aa90611b88565b80156103f75780601f106103cc576101008083540402835291602001916103f7565b820191906000526020600020905b8154815290600101906020018083116103da57829003601f168201915b50505050509080600101805461040c90611b88565b80601f016020809104026020016040519081016040528092919081815260200182805461043890611b88565b80156104855780601f1061045a57610100808354040283529160200191610485565b820191906000526020600020905b81548152906001019060200180831161046857829003601f168201915b5050505050908060020160009054906101000a900473ffffffffffffffffffffffffffffffffffffffff16905083565b600181815481106104c557600080fd5b90600052602060002090600602016000915090508060000160009054906101000a900473ffffffffffffffffffffffffffffffffffffffff169080600101549080600201549080600301549080600401549080600501805461052690611b88565b80601f016020809104026020016040519081016040528092919081815260200182805461055290611b88565b801561059f5780601f106105745761010080835404028352916020019161059f565b820191906000526020600020905b81548152906001019060200180831161058257829003601f168201915b5050505050905086565b60606002805480602002602001604051908101604052809291908181526020016000905b828210156108125783829060005260206000209060090201604051806101200160405290816000820160009054906101000a900473ffffffffffffffffffffffffffffffffffffffff1673ffffffffffffffffffffffffffffffffffffffff1673ffffffffffffffffffffffffffffffffffffffff1681526020016001820160009054906101000a900473ffffffffffffffffffffffffffffffffffffffff1673ffffffffffffffffffffffffffffffffffffffff1673ffffffffffffffffffffffffffffffffffffffff1681526020016002820160009054906101000a900473ffffffffffffffffffffffffffffffffffffffff1673ffffffffffffffffffffffffffffffffffffffff1673ffffffffffffffffffffffffffffffffffffffff1681526020016003820160009054906101000a900473ffffffffffffffffffffffffffffffffffffffff1673ffffffffffffffffffffffffffffffffffffffff1673ffffffffffffffffffffffffffffffffffffffff1681526020016004820154815260200160058201548152602001600682015481526020016007820154815260200160088201805461078190611b88565b80601f01602080910402602001604051908101604052809291908181526020018280546107ad90611b88565b80156107fa5780601f106107cf576101008083540402835291602001916107fa565b820191906000526020600020905b8154815290600101906020018083116107dd57829003601f168201915b505050505081525050815260200190600101906105cd565b50505050905090565b60026040518061012001604052803373ffffffffffffffffffffffffffffffffffffffff1681526020018973ffffffffffffffffffffffffffffffffffffffff1681526020018873ffffffffffffffffffffffffffffffffffffffff1681526020018773ffffffffffffffffffffffffffffffffffffffff16815260200186815260200185815260200142815260200184815260200183815250908060018154018082558091505060019003906000526020600020906009020160009091909190915060008201518160000160006101000a81548173ffffffffffffffffffffffffffffffffffffffff021916908373ffffffffffffffffffffffffffffffffffffffff16021790555060208201518160010160006101000a81548173ffffffffffffffffffffffffffffffffffffffff021916908373ffffffffffffffffffffffffffffffffffffffff16021790555060408201518160020160006101000a81548173ffffffffffffffffffffffffffffffffffffffff021916908373ffffffffffffffffffffffffffffffffffffffff16021790555060608201518160030160006101000a81548173ffffffffffffffffffffffffffffffffffffffff021916908373ffffffffffffffffffffffffffffffffffffffff1602179055506080820151816004015560a0820151816005015560c0820151816006015560e08201518160070155610100820151816008019081610a389190611d65565b5050508573ffffffffffffffffffffffffffffffffffffffff168773ffffffffffffffffffffffffffffffffffffffff163373ffffffffffffffffffffffffffffffffffffffff167f8112f18734449546fff9aeb20b8df43a86238ed2c24dc7f330fe55c43978bc84888888428989604051610ab996959493929190611e37565b60405180910390a450505050505050565b60016040518060c001604052808873ffffffffffffffffffffffffffffffffffffffff16815260200187815260200186815260200185815260200184815260200183815250908060018154018082558091505060019003906000526020600020906006020160009091909190915060008201518160000160006101000a81548173ffffffffffffffffffffffffffffffffffffffff021916908373ffffffffffffffffffffffffffffffffffffffff1602179055506020820151816001015560408201518160020155606082015181600301556080820151816004015560a0820151816005019081610bbc9190611d65565b5050507fcbfb872d421d036091ac07dd081cc344eeff66290d74e295f4a0b64708e41b92868686868686604051610bf8969594939291906112aa565b60405180910390a1505050505050565b60606000805480602002602001604051908101604052809291908181526020016000905b82821015610dd85783829060005260206000209060030201604051806060016040529081600082018054610c5f90611b88565b80601f0160208091040260200160405190810160405280929190818152602001828054610c8b90611b88565b8015610cd85780601f10610cad57610100808354040283529160200191610cd8565b820191906000526020600020905b815481529060010190602001808311610cbb57829003601f168201915b50505050508152602001600182018054610cf190611b88565b80601f0160208091040260200160405190810160405280929190818152602001828054610d1d90611b88565b8015610d6a5780601f10610d3f57610100808354040283529160200191610d6a565b820191906000526020600020905b815481529060010190602001808311610d4d57829003601f168201915b505050505081526020016002820160009054906101000a900473ffffffffffffffffffffffffffffffffffffffff1673ffffffffffffffffffffffffffffffffffffffff1673ffffffffffffffffffffffffffffffffffffffff168152505081526020019060010190610c2c565b50505050905090565b600060405180606001604052808581526020018481526020018373ffffffffffffffffffffffffffffffffffffffff1681525090806001815401808255809150506001900390600052602060002090600302016000909190919091506000820151816000019081610e529190611d65565b506020820151816001019081610e689190611d65565b5060408201518160020160006101000a81548173ffffffffffffffffffffffffffffffffffffffff021916908373ffffffffffffffffffffffffffffffffffffffff16021790555050507f7ab7074f7826dda120af25c3924584f012f6cc3108c1185301c5461ac75f8007838383604051610ee593929190611265565b60405180910390a1505050565b60606001805480602002602001604051908101604052809291908181526020016000905b8282101561105857838290600052602060002090600602016040518060c00160405290816000820160009054906101000a900473ffffffffffffffffffffffffffffffffffffffff1673ffffffffffffffffffffffffffffffffffffffff1673ffffffffffffffffffffffffffffffffffffffff16815260200160018201548152602001600282015481526020016003820154815260200160048201548152602001600582018054610fc790611b88565b80601f0160208091040260200160405190810160405280929190818152602001828054610ff390611b88565b80156110405780601f1061101557610100808354040283529160200191611040565b820191906000526020600020905b81548152906001019060200180831161102357829003601f168201915b50505050508152505081526020019060010190610f16565b50505050905090565b6000604051905090565b600080fd5b600080fd5b6000819050919050565b61108881611075565b811461109357600080fd5b50565b6000813590506110a58161107f565b92915050565b6000602082840312156110c1576110c061106b565b5b60006110cf84828501611096565b91505092915050565b600073ffffffffffffffffffffffffffffffffffffffff82169050919050565b6000611103826110d8565b9050919050565b611113816110f8565b82525050565b61112281611075565b82525050565b6000819050919050565b61113b81611128565b82525050565b600081519050919050565b600082825260208201905092915050565b60005b8381101561117b578082015181840152602081019050611160565b60008484015250505050565b6000601f19601f8301169050919050565b60006111a382611141565b6111ad818561114c565b93506111bd81856020860161115d565b6111c681611187565b840191505092915050565b6000610120820190506111e7600083018c61110a565b6111f4602083018b61110a565b611201604083018a61110a565b61120e606083018961110a565b61121b6080830188611119565b61122860a0830187611119565b61123560c0830186611119565b61124260e0830185611132565b8181036101008301526112558184611198565b90509a9950505050505050505050565b6000606082019050818103600083015261127f8186611198565b905081810360208301526112938185611198565b90506112a2604083018461110a565b949350505050565b600060c0820190506112bf600083018961110a565b6112cc6020830188611119565b6112d96040830187611119565b6112e66060830186611119565b6112f36080830185611119565b81810360a08301526113058184611198565b9050979650505050505050565b600081519050919050565b600082825260208201905092915050565b6000819050602082019050919050565b611347816110f8565b82525050565b61135681611075565b82525050565b61136581611128565b82525050565b600082825260208201905092915050565b600061138782611141565b611391818561136b565b93506113a181856020860161115d565b6113aa81611187565b840191505092915050565b6000610120830160008301516113ce600086018261133e565b5060208301516113e1602086018261133e565b5060408301516113f4604086018261133e565b506060830151611407606086018261133e565b50608083015161141a608086018261134d565b5060a083015161142d60a086018261134d565b5060c083015161144060c086018261134d565b5060e083015161145360e086018261135c565b5061010083015184820361010086015261146d828261137c565b9150508091505092915050565b600061148683836113b5565b905092915050565b6000602082019050919050565b60006114a682611312565b6114b0818561131d565b9350836020820285016114c28561132e565b8060005b858110156114fe57848403895281516114df858261147a565b94506114ea8361148e565b925060208a019950506001810190506114c6565b50829750879550505050505092915050565b6000602082019050818103600083015261152a818461149b565b905092915050565b61153b816110f8565b811461154657600080fd5b50565b60008135905061155881611532565b92915050565b61156781611128565b811461157257600080fd5b50565b6000813590506115848161155e565b92915050565b600080fd5b600080fd5b7f4e487b7100000000000000000000000000000000000000000000000000000000600052604160045260246000fd5b6115cc82611187565b810181811067ffffffffffffffff821117156115eb576115ea611594565b5b80604052505050565b60006115fe611061565b905061160a82826115c3565b919050565b600067ffffffffffffffff82111561162a57611629611594565b5b61163382611187565b9050602081019050919050565b82818337600083830152505050565b600061166261165d8461160f565b6115f4565b90508281526020810184848401111561167e5761167d61158f565b5b611689848285611640565b509392505050565b600082601f8301126116a6576116a561158a565b5b81356116b684826020860161164f565b91505092915050565b600080600080600080600060e0888a0312156116de576116dd61106b565b5b60006116ec8a828b01611549565b97505060206116fd8a828b01611549565b965050604061170e8a828b01611549565b955050606061171f8a828b01611096565b94505060806117308a828b01611096565b93505060a06117418a828b01611575565b92505060c088013567ffffffffffffffff81111561176257611761611070565b5b61176e8a828b01611691565b91505092959891949750929550565b60008060008060008060c0878903121561179a5761179961106b565b5b60006117a889828a01611549565b96505060206117b989828a01611096565b95505060406117ca89828a01611096565b94505060606117db89828a01611096565b93505060806117ec89828a01611096565b92505060a087013567ffffffffffffffff81111561180d5761180c611070565b5b61181989828a01611691565b9150509295509295509295565b600081519050919050565b600082825260208201905092915050565b6000819050602082019050919050565b6000606083016000830151848203600086015261186f828261137c565b91505060208301518482036020860152611889828261137c565b915050604083015161189e604086018261133e565b508091505092915050565b60006118b58383611852565b905092915050565b6000602082019050919050565b60006118d582611826565b6118df8185611831565b9350836020820285016118f185611842565b8060005b8581101561192d578484038952815161190e85826118a9565b9450611919836118bd565b925060208a019950506001810190506118f5565b50829750879550505050505092915050565b6000602082019050818103600083015261195981846118ca565b905092915050565b60008060006060848603121561197a5761197961106b565b5b600084013567ffffffffffffffff81111561199857611997611070565b5b6119a486828701611691565b935050602084013567ffffffffffffffff8111156119c5576119c4611070565b5b6119d186828701611691565b92505060406119e286828701611549565b9150509250925092565b600081519050919050565b600082825260208201905092915050565b6000819050602082019050919050565b600060c083016000830151611a30600086018261133e565b506020830151611a43602086018261134d565b506040830151611a56604086018261134d565b506060830151611a69606086018261134d565b506080830151611a7c608086018261134d565b5060a083015184820360a0860152611a94828261137c565b9150508091505092915050565b6000611aad8383611a18565b905092915050565b6000602082019050919050565b6000611acd826119ec565b611ad781856119f7565b935083602082028501611ae985611a08565b8060005b85811015611b255784840389528151611b068582611aa1565b9450611b1183611ab5565b925060208a01995050600181019050611aed565b50829750879550505050505092915050565b60006020820190508181036000830152611b518184611ac2565b905092915050565b7f4e487b7100000000000000000000000000000000000000000000000000000000600052602260045260246000fd5b60006002820490506001821680611ba057607f821691505b602082108103611bb357611bb2611b59565b5b50919050565b60008190508160005260206000209050919050565b60006020601f8301049050919050565b600082821b905092915050565b600060088302611c1b7fffffffffffffffffffffffffffffffffffffffffffffffffffffffffffffffff82611bde565b611c258683611bde565b95508019841693508086168417925050509392505050565b6000819050919050565b6000611c62611c5d611c5884611075565b611c3d565b611075565b9050919050565b6000819050919050565b611c7c83611c47565b611c90611c8882611c69565b848454611beb565b825550505050565b600090565b611ca5611c98565b611cb0818484611c73565b505050565b5b81811015611cd457611cc9600082611c9d565b600181019050611cb6565b5050565b601f821115611d1957611cea81611bb9565b611cf384611bce565b81016020851015611d02578190505b611d16611d0e85611bce565b830182611cb5565b50505b505050565b600082821c905092915050565b6000611d3c60001984600802611d1e565b1980831691505092915050565b6000611d558383611d2b565b9150826002028217905092915050565b611d6e82611141565b67ffffffffffffffff811115611d8757611d86611594565b5b611d918254611b88565b611d9c828285611cd8565b600060209050601f831160018114611dcf5760008415611dbd578287015190505b611dc78582611d49565b865550611e2f565b601f198416611ddd86611bb9565b60005b82811015611e0557848901518255600182019150602085019450602081019050611de0565b86831015611e225784890151611e1e601f891682611d2b565b8355505b6001600288020188555050505b505050505050565b600060c082019050611e4c600083018961110a565b611e596020830188611119565b611e666040830187611119565b611e736060830186611119565b611e806080830185611132565b81810360a0830152611e928184611198565b905097965050505050505056fea264697066735822122096e21325c91d41edf4de795052e2929f17d78630e85462f7f4b4c3ee039346fa64736f6c63430008140033",
  "linkReferences": {},
  "deployedLinkReferences": {}
}