{
  "_format": "hh-sol-artifact-1",
  "contractName": "DexAggregator",
  "sourceName": "contracts/DexAggregator.sol",
  "abi": [
    {
      "anonymous": false,
      "inputs": [
        {
          "indexed": false,
          "internalType": "address",
          "name": "ammAddress",
          "type": "address"
        },
        {
          "indexed": false,
          "internalType": "uint256",
          "name": "makerFee",
          "type": "uint256"
        },
        {
          "indexed": false,
          "internalType": "uint256",
          "name": "takerFee",
          "type": "uint256"
        },
        {
          "indexed": false,
          "internalType": "uint256",
          "name": "liquidityToken1",
          "type": "uint256"
        },
        {
          "indexed": false,
          "internalType": "uint256",
          "name": "liquidityToken2",
          "type": "uint256"
        }
      ],
      "name": "DexAdded",
      "type": "event"
    },
    {
      "anonymous": false,
      "inputs": [
        {
          "indexed": true,
          "internalType": "address",
          "name": "user",
          "type": "address"
        },
        {
          "indexed": true,
          "internalType": "address",
          "name": "ammAddress",
          "type": "address"
        },
        {
          "indexed": true,
          "internalType": "address",
          "name": "tokenIn",
          "type": "address"
        },
        {
          "indexed": false,
          "internalType": "address",
          "name": "tokenOut",
          "type": "address"
        },
        {
          "indexed": false,
          "internalType": "uint256",
          "name": "amountIn",
          "type": "uint256"
        },
        {
          "indexed": false,
          "internalType": "uint256",
          "name": "amountOut",
          "type": "uint256"
        },
        {
          "indexed": false,
          "internalType": "uint256",
          "name": "timestamp",
          "type": "uint256"
        },
        {
          "indexed": false,
          "internalType": "bytes32",
          "name": "txHash",
          "type": "bytes32"
        }
      ],
      "name": "SwapExecuted",
      "type": "event"
    },
    {
      "anonymous": false,
      "inputs": [
        {
          "indexed": false,
          "internalType": "string",
          "name": "name",
          "type": "string"
        },
        {
          "indexed": false,
          "internalType": "string",
          "name": "symbol",
          "type": "string"
        },
        {
          "indexed": false,
          "internalType": "address",
          "name": "tokenAddress",
          "type": "address"
        }
      ],
      "name": "TokenAdded",
      "type": "event"
    },
    {
      "inputs": [
        {
          "internalType": "address",
          "name": "_ammAddress",
          "type": "address"
        },
        {
          "internalType": "uint256",
          "name": "_makerFee",
          "type": "uint256"
        },
        {
          "internalType": "uint256",
          "name": "_takerFee",
          "type": "uint256"
        },
        {
          "internalType": "uint256",
          "name": "_liquidityToken1",
          "type": "uint256"
        },
        {
          "internalType": "uint256",
          "name": "_liquidityToken2",
          "type": "uint256"
        }
      ],
      "name": "addDex",
      "outputs": [],
      "stateMutability": "nonpayable",
      "type": "function"
    },
    {
      "inputs": [
        {
          "internalType": "string",
          "name": "_name",
          "type": "string"
        },
        {
          "internalType": "string",
          "name": "_symbol",
          "type": "string"
        },
        {
          "internalType": "address",
          "name": "_tokenAddress",
          "type": "address"
        }
      ],
      "name": "addToken",
      "outputs": [],
      "stateMutability": "nonpayable",
      "type": "function"
    },
    {
      "inputs": [
        {
          "internalType": "uint256",
          "name": "",
          "type": "uint256"
        }
      ],
      "name": "dexes",
      "outputs": [
        {
          "internalType": "address",
          "name": "ammAddress",
          "type": "address"
        },
        {
          "internalType": "uint256",
          "name": "makerFee",
          "type": "uint256"
        },
        {
          "internalType": "uint256",
          "name": "takerFee",
          "type": "uint256"
        },
        {
          "internalType": "uint256",
          "name": "liquidityToken1",
          "type": "uint256"
        },
        {
          "internalType": "uint256",
          "name": "liquidityToken2",
          "type": "uint256"
        }
      ],
      "stateMutability": "view",
      "type": "function"
    },
    {
      "inputs": [
        {
          "internalType": "address",
          "name": "ammAddress",
          "type": "address"
        },
        {
          "internalType": "address",
          "name": "tokenIn",
          "type": "address"
        },
        {
          "internalType": "address",
          "name": "tokenOut",
          "type": "address"
        },
        {
          "internalType": "uint256",
          "name": "amountIn",
          "type": "uint256"
        },
        {
          "internalType": "uint256",
          "name": "amountOut",
          "type": "uint256"
        },
        {
          "internalType": "bytes32",
          "name": "transactionHash",
          "type": "bytes32"
        }
      ],
      "name": "executeSwap",
      "outputs": [],
      "stateMutability": "nonpayable",
      "type": "function"
    },
    {
      "inputs": [],
      "name": "getDexes",
      "outputs": [
        {
          "components": [
            {
              "internalType": "address",
              "name": "ammAddress",
              "type": "address"
            },
            {
              "internalType": "uint256",
              "name": "makerFee",
              "type": "uint256"
            },
            {
              "internalType": "uint256",
              "name": "takerFee",
              "type": "uint256"
            },
            {
              "internalType": "uint256",
              "name": "liquidityToken1",
              "type": "uint256"
            },
            {
              "internalType": "uint256",
              "name": "liquidityToken2",
              "type": "uint256"
            }
          ],
          "internalType": "struct DexAggregator.Dex[]",
          "name": "",
          "type": "tuple[]"
        }
      ],
      "stateMutability": "view",
      "type": "function"
    },
    {
      "inputs": [],
      "name": "getSwapHistory",
      "outputs": [
        {
          "components": [
            {
              "internalType": "address",
              "name": "user",
              "type": "address"
            },
            {
              "internalType": "address",
              "name": "ammAddress",
              "type": "address"
            },
            {
              "internalType": "address",
              "name": "tokenIn",
              "type": "address"
            },
            {
              "internalType": "address",
              "name": "tokenOut",
              "type": "address"
            },
            {
              "internalType": "uint256",
              "name": "amountIn",
              "type": "uint256"
            },
            {
              "internalType": "uint256",
              "name": "amountOut",
              "type": "uint256"
            },
            {
              "internalType": "uint256",
              "name": "timestamp",
              "type": "uint256"
            },
            {
              "internalType": "bytes32",
              "name": "txHash",
              "type": "bytes32"
            }
          ],
          "internalType": "struct DexAggregator.Swap[]",
          "name": "",
          "type": "tuple[]"
        }
      ],
      "stateMutability": "view",
      "type": "function"
    },
    {
      "inputs": [],
      "name": "getTokens",
      "outputs": [
        {
          "components": [
            {
              "internalType": "string",
              "name": "name",
              "type": "string"
            },
            {
              "internalType": "string",
              "name": "symbol",
              "type": "string"
            },
            {
              "internalType": "address",
              "name": "tokenAddress",
              "type": "address"
            }
          ],
          "internalType": "struct DexAggregator.Token[]",
          "name": "",
          "type": "tuple[]"
        }
      ],
      "stateMutability": "view",
      "type": "function"
    },
    {
      "inputs": [
        {
          "internalType": "uint256",
          "name": "",
          "type": "uint256"
        }
      ],
      "name": "swapHistory",
      "outputs": [
        {
          "internalType": "address",
          "name": "user",
          "type": "address"
        },
        {
          "internalType": "address",
          "name": "ammAddress",
          "type": "address"
        },
        {
          "internalType": "address",
          "name": "tokenIn",
          "type": "address"
        },
        {
          "internalType": "address",
          "name": "tokenOut",
          "type": "address"
        },
        {
          "internalType": "uint256",
          "name": "amountIn",
          "type": "uint256"
        },
        {
          "internalType": "uint256",
          "name": "amountOut",
          "type": "uint256"
        },
        {
          "internalType": "uint256",
          "name": "timestamp",
          "type": "uint256"
        },
        {
          "internalType": "bytes32",
          "name": "txHash",
          "type": "bytes32"
        }
      ],
      "stateMutability": "view",
      "type": "function"
    },
    {
      "inputs": [
        {
          "internalType": "uint256",
          "name": "",
          "type": "uint256"
        }
      ],
      "name": "tokens",
      "outputs": [
        {
          "internalType": "string",
          "name": "name",
          "type": "string"
        },
        {
          "internalType": "string",
          "name": "symbol",
          "type": "string"
        },
        {
          "internalType": "address",
          "name": "tokenAddress",
          "type": "address"
        }
      ],
      "stateMutability": "view",
      "type": "function"
    }
  ],
  "bytecode": "0x608060405234801561001057600080fd5b50611b4c806100206000396000f3fe608060405234801561001057600080fd5b50600436106100935760003560e01c8063aa6ca80811610066578063aa6ca80814610153578063afefdf7b14610171578063d1fa437d1461018d578063fa3d24f2146101a9578063fda493c9146101c557610093565b80630ddd03ba146100985780634f64b2be146100cf5780636338a7c01461010157806364b2a73c14610135575b600080fd5b6100b260048036038101906100ad9190610e2a565b6101e3565b6040516100c6989796959493929190610ec0565b60405180910390f35b6100e960048036038101906100e49190610e2a565b6102bb565b6040516100f893929190610fce565b60405180910390f35b61011b60048036038101906101169190610e2a565b610425565b60405161012c959493929190611013565b60405180910390f35b61013d61048b565b60405161014a91906111e5565b60405180910390f35b61015b61066b565b604051610168919061136a565b60405180910390f35b61018b600480360381019061018691906113b8565b610844565b005b6101a760048036038101906101a2919061145f565b610963565b005b6101c360048036038101906101be9190611621565b610bf2565b005b6101cd610d03565b6040516101da91906117c3565b60405180910390f35b600281815481106101f357600080fd5b90600052602060002090600802016000915090508060000160009054906101000a900473ffffffffffffffffffffffffffffffffffffffff16908060010160009054906101000a900473ffffffffffffffffffffffffffffffffffffffff16908060020160009054906101000a900473ffffffffffffffffffffffffffffffffffffffff16908060030160009054906101000a900473ffffffffffffffffffffffffffffffffffffffff16908060040154908060050154908060060154908060070154905088565b600081815481106102cb57600080fd5b90600052602060002090600302016000915090508060000180546102ee90611814565b80601f016020809104026020016040519081016040528092919081815260200182805461031a90611814565b80156103675780601f1061033c57610100808354040283529160200191610367565b820191906000526020600020905b81548152906001019060200180831161034a57829003601f168201915b50505050509080600101805461037c90611814565b80601f01602080910402602001604051908101604052809291908181526020018280546103a890611814565b80156103f55780601f106103ca576101008083540402835291602001916103f5565b820191906000526020600020905b8154815290600101906020018083116103d857829003601f168201915b5050505050908060020160009054906101000a900473ffffffffffffffffffffffffffffffffffffffff16905083565b6001818154811061043557600080fd5b90600052602060002090600502016000915090508060000160009054906101000a900473ffffffffffffffffffffffffffffffffffffffff16908060010154908060020154908060030154908060040154905085565b60606002805480602002602001604051908101604052809291908181526020016000905b828210156106625783829060005260206000209060080201604051806101000160405290816000820160009054906101000a900473ffffffffffffffffffffffffffffffffffffffff1673ffffffffffffffffffffffffffffffffffffffff1673ffffffffffffffffffffffffffffffffffffffff1681526020016001820160009054906101000a900473ffffffffffffffffffffffffffffffffffffffff1673ffffffffffffffffffffffffffffffffffffffff1673ffffffffffffffffffffffffffffffffffffffff1681526020016002820160009054906101000a900473ffffffffffffffffffffffffffffffffffffffff1673ffffffffffffffffffffffffffffffffffffffff1673ffffffffffffffffffffffffffffffffffffffff1681526020016003820160009054906101000a900473ffffffffffffffffffffffffffffffffffffffff1673ffffffffffffffffffffffffffffffffffffffff1673ffffffffffffffffffffffffffffffffffffffff168152602001600482015481526020016005820154815260200160068201548152602001600782015481525050815260200190600101906104af565b50505050905090565b60606000805480602002602001604051908101604052809291908181526020016000905b8282101561083b57838290600052602060002090600302016040518060600160405290816000820180546106c290611814565b80601f01602080910402602001604051908101604052809291908181526020018280546106ee90611814565b801561073b5780601f106107105761010080835404028352916020019161073b565b820191906000526020600020905b81548152906001019060200180831161071e57829003601f168201915b5050505050815260200160018201805461075490611814565b80601f016020809104026020016040519081016040528092919081815260200182805461078090611814565b80156107cd5780601f106107a2576101008083540402835291602001916107cd565b820191906000526020600020905b8154815290600101906020018083116107b057829003601f168201915b505050505081526020016002820160009054906101000a900473ffffffffffffffffffffffffffffffffffffffff1673ffffffffffffffffffffffffffffffffffffffff1673ffffffffffffffffffffffffffffffffffffffff16815250508152602001906001019061068f565b50505050905090565b60016040518060a001604052808773ffffffffffffffffffffffffffffffffffffffff16815260200186815260200185815260200184815260200183815250908060018154018082558091505060019003906000526020600020906005020160009091909190915060008201518160000160006101000a81548173ffffffffffffffffffffffffffffffffffffffff021916908373ffffffffffffffffffffffffffffffffffffffff1602179055506020820151816001015560408201518160020155606082015181600301556080820151816004015550507f247cca4e070a26313c37fbcf4c949df05b68b15591445ed41e3667c25feec3588585858585604051610954959493929190611013565b60405180910390a15050505050565b60026040518061010001604052803373ffffffffffffffffffffffffffffffffffffffff1681526020018873ffffffffffffffffffffffffffffffffffffffff1681526020018773ffffffffffffffffffffffffffffffffffffffff1681526020018673ffffffffffffffffffffffffffffffffffffffff16815260200185815260200184815260200142815260200183815250908060018154018082558091505060019003906000526020600020906008020160009091909190915060008201518160000160006101000a81548173ffffffffffffffffffffffffffffffffffffffff021916908373ffffffffffffffffffffffffffffffffffffffff16021790555060208201518160010160006101000a81548173ffffffffffffffffffffffffffffffffffffffff021916908373ffffffffffffffffffffffffffffffffffffffff16021790555060408201518160020160006101000a81548173ffffffffffffffffffffffffffffffffffffffff021916908373ffffffffffffffffffffffffffffffffffffffff16021790555060608201518160030160006101000a81548173ffffffffffffffffffffffffffffffffffffffff021916908373ffffffffffffffffffffffffffffffffffffffff1602179055506080820151816004015560a0820151816005015560c0820151816006015560e0820151816007015550508473ffffffffffffffffffffffffffffffffffffffff168673ffffffffffffffffffffffffffffffffffffffff163373ffffffffffffffffffffffffffffffffffffffff167f03c1d0f791581c303a52224329aaa255ede53885133b76eb5ea0e1a51120d4ea8787874288604051610be2959493929190611845565b60405180910390a4505050505050565b600060405180606001604052808581526020018481526020018373ffffffffffffffffffffffffffffffffffffffff1681525090806001815401808255809150506001900390600052602060002090600302016000909190919091506000820151816000019081610c639190611a44565b506020820151816001019081610c799190611a44565b5060408201518160020160006101000a81548173ffffffffffffffffffffffffffffffffffffffff021916908373ffffffffffffffffffffffffffffffffffffffff16021790555050507f7ab7074f7826dda120af25c3924584f012f6cc3108c1185301c5461ac75f8007838383604051610cf693929190610fce565b60405180910390a1505050565b60606001805480602002602001604051908101604052809291908181526020016000905b82821015610dd757838290600052602060002090600502016040518060a00160405290816000820160009054906101000a900473ffffffffffffffffffffffffffffffffffffffff1673ffffffffffffffffffffffffffffffffffffffff1673ffffffffffffffffffffffffffffffffffffffff16815260200160018201548152602001600282015481526020016003820154815260200160048201548152505081526020019060010190610d27565b50505050905090565b6000604051905090565b600080fd5b600080fd5b6000819050919050565b610e0781610df4565b8114610e1257600080fd5b50565b600081359050610e2481610dfe565b92915050565b600060208284031215610e4057610e3f610dea565b5b6000610e4e84828501610e15565b91505092915050565b600073ffffffffffffffffffffffffffffffffffffffff82169050919050565b6000610e8282610e57565b9050919050565b610e9281610e77565b82525050565b610ea181610df4565b82525050565b6000819050919050565b610eba81610ea7565b82525050565b600061010082019050610ed6600083018b610e89565b610ee3602083018a610e89565b610ef06040830189610e89565b610efd6060830188610e89565b610f0a6080830187610e98565b610f1760a0830186610e98565b610f2460c0830185610e98565b610f3160e0830184610eb1565b9998505050505050505050565b600081519050919050565b600082825260208201905092915050565b60005b83811015610f78578082015181840152602081019050610f5d565b60008484015250505050565b6000601f19601f8301169050919050565b6000610fa082610f3e565b610faa8185610f49565b9350610fba818560208601610f5a565b610fc381610f84565b840191505092915050565b60006060820190508181036000830152610fe88186610f95565b90508181036020830152610ffc8185610f95565b905061100b6040830184610e89565b949350505050565b600060a0820190506110286000830188610e89565b6110356020830187610e98565b6110426040830186610e98565b61104f6060830185610e98565b61105c6080830184610e98565b9695505050505050565b600081519050919050565b600082825260208201905092915050565b6000819050602082019050919050565b61109b81610e77565b82525050565b6110aa81610df4565b82525050565b6110b981610ea7565b82525050565b610100820160008201516110d66000850182611092565b5060208201516110e96020850182611092565b5060408201516110fc6040850182611092565b50606082015161110f6060850182611092565b50608082015161112260808501826110a1565b5060a082015161113560a08501826110a1565b5060c082015161114860c08501826110a1565b5060e082015161115b60e08501826110b0565b50505050565b600061116d83836110bf565b6101008301905092915050565b6000602082019050919050565b600061119282611066565b61119c8185611071565b93506111a783611082565b8060005b838110156111d85781516111bf8882611161565b97506111ca8361117a565b9250506001810190506111ab565b5085935050505092915050565b600060208201905081810360008301526111ff8184611187565b905092915050565b600081519050919050565b600082825260208201905092915050565b6000819050602082019050919050565b600082825260208201905092915050565b600061124f82610f3e565b6112598185611233565b9350611269818560208601610f5a565b61127281610f84565b840191505092915050565b6000606083016000830151848203600086015261129a8282611244565b915050602083015184820360208601526112b48282611244565b91505060408301516112c96040860182611092565b508091505092915050565b60006112e0838361127d565b905092915050565b6000602082019050919050565b600061130082611207565b61130a8185611212565b93508360208202850161131c85611223565b8060005b85811015611358578484038952815161133985826112d4565b9450611344836112e8565b925060208a01995050600181019050611320565b50829750879550505050505092915050565b6000602082019050818103600083015261138481846112f5565b905092915050565b61139581610e77565b81146113a057600080fd5b50565b6000813590506113b28161138c565b92915050565b600080600080600060a086880312156113d4576113d3610dea565b5b60006113e2888289016113a3565b95505060206113f388828901610e15565b945050604061140488828901610e15565b935050606061141588828901610e15565b925050608061142688828901610e15565b9150509295509295909350565b61143c81610ea7565b811461144757600080fd5b50565b60008135905061145981611433565b92915050565b60008060008060008060c0878903121561147c5761147b610dea565b5b600061148a89828a016113a3565b965050602061149b89828a016113a3565b95505060406114ac89828a016113a3565b94505060606114bd89828a01610e15565b93505060806114ce89828a01610e15565b92505060a06114df89828a0161144a565b9150509295509295509295565b600080fd5b600080fd5b7f4e487b7100000000000000000000000000000000000000000000000000000000600052604160045260246000fd5b61152e82610f84565b810181811067ffffffffffffffff8211171561154d5761154c6114f6565b5b80604052505050565b6000611560610de0565b905061156c8282611525565b919050565b600067ffffffffffffffff82111561158c5761158b6114f6565b5b61159582610f84565b9050602081019050919050565b82818337600083830152505050565b60006115c46115bf84611571565b611556565b9050828152602081018484840111156115e0576115df6114f1565b5b6115eb8482856115a2565b509392505050565b600082601f830112611608576116076114ec565b5b81356116188482602086016115b1565b91505092915050565b60008060006060848603121561163a57611639610dea565b5b600084013567ffffffffffffffff81111561165857611657610def565b5b611664868287016115f3565b935050602084013567ffffffffffffffff81111561168557611684610def565b5b611691868287016115f3565b92505060406116a2868287016113a3565b9150509250925092565b600081519050919050565b600082825260208201905092915050565b6000819050602082019050919050565b60a0820160008201516116ee6000850182611092565b50602082015161170160208501826110a1565b50604082015161171460408501826110a1565b50606082015161172760608501826110a1565b50608082015161173a60808501826110a1565b50505050565b600061174c83836116d8565b60a08301905092915050565b6000602082019050919050565b6000611770826116ac565b61177a81856116b7565b9350611785836116c8565b8060005b838110156117b657815161179d8882611740565b97506117a883611758565b925050600181019050611789565b5085935050505092915050565b600060208201905081810360008301526117dd8184611765565b905092915050565b7f4e487b7100000000000000000000000000000000000000000000000000000000600052602260045260246000fd5b6000600282049050600182168061182c57607f821691505b60208210810361183f5761183e6117e5565b5b50919050565b600060a08201905061185a6000830188610e89565b6118676020830187610e98565b6118746040830186610e98565b6118816060830185610e98565b61188e6080830184610eb1565b9695505050505050565b60008190508160005260206000209050919050565b60006020601f8301049050919050565b600082821b905092915050565b6000600883026118fa7fffffffffffffffffffffffffffffffffffffffffffffffffffffffffffffffff826118bd565b61190486836118bd565b95508019841693508086168417925050509392505050565b6000819050919050565b600061194161193c61193784610df4565b61191c565b610df4565b9050919050565b6000819050919050565b61195b83611926565b61196f61196782611948565b8484546118ca565b825550505050565b600090565b611984611977565b61198f818484611952565b505050565b5b818110156119b3576119a860008261197c565b600181019050611995565b5050565b601f8211156119f8576119c981611898565b6119d2846118ad565b810160208510156119e1578190505b6119f56119ed856118ad565b830182611994565b50505b505050565b600082821c905092915050565b6000611a1b600019846008026119fd565b1980831691505092915050565b6000611a348383611a0a565b9150826002028217905092915050565b611a4d82610f3e565b67ffffffffffffffff811115611a6657611a656114f6565b5b611a708254611814565b611a7b8282856119b7565b600060209050601f831160018114611aae5760008415611a9c578287015190505b611aa68582611a28565b865550611b0e565b601f198416611abc86611898565b60005b82811015611ae457848901518255600182019150602085019450602081019050611abf565b86831015611b015784890151611afd601f891682611a0a565b8355505b6001600288020188555050505b50505050505056fea2646970667358221220b67de99026a1bbb6f5859cf61053303bb5c41f96df50c719fdcd70c76c4b164d64736f6c63430008140033",
  "linkReferences": {},
  "deployedLinkReferences": {}
}