{
  "_format": "hh-sol-artifact-1",
  "contractName": "DexAggregator",
  "sourceName": "contracts/DexAggregator.sol",
  "abi": [
    {
      "anonymous": false,
      "inputs": [
        {
          "indexed": false,
          "internalType": "address",
          "name": "ammAddress",
          "type": "address"
        },
        {
          "indexed": false,
          "internalType": "uint256",
          "name": "makerFee",
          "type": "uint256"
        },
        {
          "indexed": false,
          "internalType": "uint256",
          "name": "takerFee",
          "type": "uint256"
        },
        {
          "indexed": false,
          "internalType": "uint256",
          "name": "liquidityToken1",
          "type": "uint256"
        },
        {
          "indexed": false,
          "internalType": "uint256",
          "name": "liquidityToken2",
          "type": "uint256"
        },
        {
          "indexed": false,
          "internalType": "string",
          "name": "name",
          "type": "string"
        }
      ],
      "name": "DexAdded",
      "type": "event"
    },
    {
      "anonymous": false,
      "inputs": [
        {
          "indexed": true,
          "internalType": "address",
          "name": "user",
          "type": "address"
        },
        {
          "indexed": true,
          "internalType": "address",
          "name": "ammAddress",
          "type": "address"
        },
        {
          "indexed": true,
          "internalType": "address",
          "name": "tokenIn",
          "type": "address"
        },
        {
          "indexed": false,
          "internalType": "address",
          "name": "tokenOut",
          "type": "address"
        },
        {
          "indexed": false,
          "internalType": "uint256",
          "name": "amountIn",
          "type": "uint256"
        },
        {
          "indexed": false,
          "internalType": "uint256",
          "name": "amountOut",
          "type": "uint256"
        },
        {
          "indexed": false,
          "internalType": "uint256",
          "name": "timestamp",
          "type": "uint256"
        },
        {
          "indexed": false,
          "internalType": "bytes32",
          "name": "txHash",
          "type": "bytes32"
        }
      ],
      "name": "SwapExecuted",
      "type": "event"
    },
    {
      "anonymous": false,
      "inputs": [
        {
          "indexed": false,
          "internalType": "string",
          "name": "name",
          "type": "string"
        },
        {
          "indexed": false,
          "internalType": "string",
          "name": "symbol",
          "type": "string"
        },
        {
          "indexed": false,
          "internalType": "address",
          "name": "tokenAddress",
          "type": "address"
        }
      ],
      "name": "TokenAdded",
      "type": "event"
    },
    {
      "inputs": [
        {
          "internalType": "address",
          "name": "_ammAddress",
          "type": "address"
        },
        {
          "internalType": "uint256",
          "name": "_makerFee",
          "type": "uint256"
        },
        {
          "internalType": "uint256",
          "name": "_takerFee",
          "type": "uint256"
        },
        {
          "internalType": "uint256",
          "name": "_liquidityToken1",
          "type": "uint256"
        },
        {
          "internalType": "uint256",
          "name": "_liquidityToken2",
          "type": "uint256"
        },
        {
          "internalType": "string",
          "name": "_name",
          "type": "string"
        }
      ],
      "name": "addDex",
      "outputs": [],
      "stateMutability": "nonpayable",
      "type": "function"
    },
    {
      "inputs": [
        {
          "internalType": "string",
          "name": "_name",
          "type": "string"
        },
        {
          "internalType": "string",
          "name": "_symbol",
          "type": "string"
        },
        {
          "internalType": "address",
          "name": "_tokenAddress",
          "type": "address"
        }
      ],
      "name": "addToken",
      "outputs": [],
      "stateMutability": "nonpayable",
      "type": "function"
    },
    {
      "inputs": [
        {
          "internalType": "uint256",
          "name": "",
          "type": "uint256"
        }
      ],
      "name": "dexes",
      "outputs": [
        {
          "internalType": "address",
          "name": "ammAddress",
          "type": "address"
        },
        {
          "internalType": "uint256",
          "name": "makerFee",
          "type": "uint256"
        },
        {
          "internalType": "uint256",
          "name": "takerFee",
          "type": "uint256"
        },
        {
          "internalType": "uint256",
          "name": "liquidityToken1",
          "type": "uint256"
        },
        {
          "internalType": "uint256",
          "name": "liquidityToken2",
          "type": "uint256"
        },
        {
          "internalType": "string",
          "name": "name",
          "type": "string"
        }
      ],
      "stateMutability": "view",
      "type": "function"
    },
    {
      "inputs": [
        {
          "internalType": "address",
          "name": "ammAddress",
          "type": "address"
        },
        {
          "internalType": "address",
          "name": "tokenIn",
          "type": "address"
        },
        {
          "internalType": "address",
          "name": "tokenOut",
          "type": "address"
        },
        {
          "internalType": "uint256",
          "name": "amountIn",
          "type": "uint256"
        },
        {
          "internalType": "uint256",
          "name": "amountOut",
          "type": "uint256"
        },
        {
          "internalType": "bytes32",
          "name": "transactionHash",
          "type": "bytes32"
        }
      ],
      "name": "executeSwap",
      "outputs": [],
      "stateMutability": "nonpayable",
      "type": "function"
    },
    {
      "inputs": [],
      "name": "getDexes",
      "outputs": [
        {
          "components": [
            {
              "internalType": "address",
              "name": "ammAddress",
              "type": "address"
            },
            {
              "internalType": "uint256",
              "name": "makerFee",
              "type": "uint256"
            },
            {
              "internalType": "uint256",
              "name": "takerFee",
              "type": "uint256"
            },
            {
              "internalType": "uint256",
              "name": "liquidityToken1",
              "type": "uint256"
            },
            {
              "internalType": "uint256",
              "name": "liquidityToken2",
              "type": "uint256"
            },
            {
              "internalType": "string",
              "name": "name",
              "type": "string"
            }
          ],
          "internalType": "struct DexAggregator.Dex[]",
          "name": "",
          "type": "tuple[]"
        }
      ],
      "stateMutability": "view",
      "type": "function"
    },
    {
      "inputs": [],
      "name": "getSwapHistory",
      "outputs": [
        {
          "components": [
            {
              "internalType": "address",
              "name": "user",
              "type": "address"
            },
            {
              "internalType": "address",
              "name": "ammAddress",
              "type": "address"
            },
            {
              "internalType": "address",
              "name": "tokenIn",
              "type": "address"
            },
            {
              "internalType": "address",
              "name": "tokenOut",
              "type": "address"
            },
            {
              "internalType": "uint256",
              "name": "amountIn",
              "type": "uint256"
            },
            {
              "internalType": "uint256",
              "name": "amountOut",
              "type": "uint256"
            },
            {
              "internalType": "uint256",
              "name": "timestamp",
              "type": "uint256"
            },
            {
              "internalType": "bytes32",
              "name": "txHash",
              "type": "bytes32"
            }
          ],
          "internalType": "struct DexAggregator.Swap[]",
          "name": "",
          "type": "tuple[]"
        }
      ],
      "stateMutability": "view",
      "type": "function"
    },
    {
      "inputs": [],
      "name": "getTokens",
      "outputs": [
        {
          "components": [
            {
              "internalType": "string",
              "name": "name",
              "type": "string"
            },
            {
              "internalType": "string",
              "name": "symbol",
              "type": "string"
            },
            {
              "internalType": "address",
              "name": "tokenAddress",
              "type": "address"
            }
          ],
          "internalType": "struct DexAggregator.Token[]",
          "name": "",
          "type": "tuple[]"
        }
      ],
      "stateMutability": "view",
      "type": "function"
    },
    {
      "inputs": [
        {
          "internalType": "uint256",
          "name": "",
          "type": "uint256"
        }
      ],
      "name": "swapHistory",
      "outputs": [
        {
          "internalType": "address",
          "name": "user",
          "type": "address"
        },
        {
          "internalType": "address",
          "name": "ammAddress",
          "type": "address"
        },
        {
          "internalType": "address",
          "name": "tokenIn",
          "type": "address"
        },
        {
          "internalType": "address",
          "name": "tokenOut",
          "type": "address"
        },
        {
          "internalType": "uint256",
          "name": "amountIn",
          "type": "uint256"
        },
        {
          "internalType": "uint256",
          "name": "amountOut",
          "type": "uint256"
        },
        {
          "internalType": "uint256",
          "name": "timestamp",
          "type": "uint256"
        },
        {
          "internalType": "bytes32",
          "name": "txHash",
          "type": "bytes32"
        }
      ],
      "stateMutability": "view",
      "type": "function"
    },
    {
      "inputs": [
        {
          "internalType": "uint256",
          "name": "",
          "type": "uint256"
        }
      ],
      "name": "tokens",
      "outputs": [
        {
          "internalType": "string",
          "name": "name",
          "type": "string"
        },
        {
          "internalType": "string",
          "name": "symbol",
          "type": "string"
        },
        {
          "internalType": "address",
          "name": "tokenAddress",
          "type": "address"
        }
      ],
      "stateMutability": "view",
      "type": "function"
    }
  ],
  "bytecode": "0x608060405234801561001057600080fd5b50611d03806100206000396000f3fe608060405234801561001057600080fd5b50600436106100935760003560e01c8063a66f4d6211610066578063a66f4d6214610154578063aa6ca80814610170578063d1fa437d1461018e578063fa3d24f2146101aa578063fda493c9146101c657610093565b80630ddd03ba146100985780634f64b2be146100cf5780636338a7c01461010157806364b2a73c14610136575b600080fd5b6100b260048036038101906100ad9190610f6a565b6101e4565b6040516100c6989796959493929190611000565b60405180910390f35b6100e960048036038101906100e49190610f6a565b6102bc565b6040516100f89392919061110e565b60405180910390f35b61011b60048036038101906101169190610f6a565b610426565b60405161012d96959493929190611153565b60405180910390f35b61013e61051a565b60405161014b919061133a565b60405180910390f35b61016e600480360381019061016991906114bd565b6106fa565b005b610178610838565b60405161018591906116c9565b60405180910390f35b6101a860048036038101906101a39190611717565b610a11565b005b6101c460048036038101906101bf91906117a4565b610ca0565b005b6101ce610db1565b6040516101db919061197a565b60405180910390f35b600281815481106101f457600080fd5b90600052602060002090600802016000915090508060000160009054906101000a900473ffffffffffffffffffffffffffffffffffffffff16908060010160009054906101000a900473ffffffffffffffffffffffffffffffffffffffff16908060020160009054906101000a900473ffffffffffffffffffffffffffffffffffffffff16908060030160009054906101000a900473ffffffffffffffffffffffffffffffffffffffff16908060040154908060050154908060060154908060070154905088565b600081815481106102cc57600080fd5b90600052602060002090600302016000915090508060000180546102ef906119cb565b80601f016020809104026020016040519081016040528092919081815260200182805461031b906119cb565b80156103685780601f1061033d57610100808354040283529160200191610368565b820191906000526020600020905b81548152906001019060200180831161034b57829003601f168201915b50505050509080600101805461037d906119cb565b80601f01602080910402602001604051908101604052809291908181526020018280546103a9906119cb565b80156103f65780601f106103cb576101008083540402835291602001916103f6565b820191906000526020600020905b8154815290600101906020018083116103d957829003601f168201915b5050505050908060020160009054906101000a900473ffffffffffffffffffffffffffffffffffffffff16905083565b6001818154811061043657600080fd5b90600052602060002090600602016000915090508060000160009054906101000a900473ffffffffffffffffffffffffffffffffffffffff1690806001015490806002015490806003015490806004015490806005018054610497906119cb565b80601f01602080910402602001604051908101604052809291908181526020018280546104c3906119cb565b80156105105780601f106104e557610100808354040283529160200191610510565b820191906000526020600020905b8154815290600101906020018083116104f357829003601f168201915b5050505050905086565b60606002805480602002602001604051908101604052809291908181526020016000905b828210156106f15783829060005260206000209060080201604051806101000160405290816000820160009054906101000a900473ffffffffffffffffffffffffffffffffffffffff1673ffffffffffffffffffffffffffffffffffffffff1673ffffffffffffffffffffffffffffffffffffffff1681526020016001820160009054906101000a900473ffffffffffffffffffffffffffffffffffffffff1673ffffffffffffffffffffffffffffffffffffffff1673ffffffffffffffffffffffffffffffffffffffff1681526020016002820160009054906101000a900473ffffffffffffffffffffffffffffffffffffffff1673ffffffffffffffffffffffffffffffffffffffff1673ffffffffffffffffffffffffffffffffffffffff1681526020016003820160009054906101000a900473ffffffffffffffffffffffffffffffffffffffff1673ffffffffffffffffffffffffffffffffffffffff1673ffffffffffffffffffffffffffffffffffffffff1681526020016004820154815260200160058201548152602001600682015481526020016007820154815250508152602001906001019061053e565b50505050905090565b60016040518060c001604052808873ffffffffffffffffffffffffffffffffffffffff16815260200187815260200186815260200185815260200184815260200183815250908060018154018082558091505060019003906000526020600020906006020160009091909190915060008201518160000160006101000a81548173ffffffffffffffffffffffffffffffffffffffff021916908373ffffffffffffffffffffffffffffffffffffffff1602179055506020820151816001015560408201518160020155606082015181600301556080820151816004015560a08201518160050190816107ec9190611ba8565b5050507fcbfb872d421d036091ac07dd081cc344eeff66290d74e295f4a0b64708e41b9286868686868660405161082896959493929190611153565b60405180910390a1505050505050565b60606000805480602002602001604051908101604052809291908181526020016000905b82821015610a08578382906000526020600020906003020160405180606001604052908160008201805461088f906119cb565b80601f01602080910402602001604051908101604052809291908181526020018280546108bb906119cb565b80156109085780601f106108dd57610100808354040283529160200191610908565b820191906000526020600020905b8154815290600101906020018083116108eb57829003601f168201915b50505050508152602001600182018054610921906119cb565b80601f016020809104026020016040519081016040528092919081815260200182805461094d906119cb565b801561099a5780601f1061096f5761010080835404028352916020019161099a565b820191906000526020600020905b81548152906001019060200180831161097d57829003601f168201915b505050505081526020016002820160009054906101000a900473ffffffffffffffffffffffffffffffffffffffff1673ffffffffffffffffffffffffffffffffffffffff1673ffffffffffffffffffffffffffffffffffffffff16815250508152602001906001019061085c565b50505050905090565b60026040518061010001604052803373ffffffffffffffffffffffffffffffffffffffff1681526020018873ffffffffffffffffffffffffffffffffffffffff1681526020018773ffffffffffffffffffffffffffffffffffffffff1681526020018673ffffffffffffffffffffffffffffffffffffffff16815260200185815260200184815260200142815260200183815250908060018154018082558091505060019003906000526020600020906008020160009091909190915060008201518160000160006101000a81548173ffffffffffffffffffffffffffffffffffffffff021916908373ffffffffffffffffffffffffffffffffffffffff16021790555060208201518160010160006101000a81548173ffffffffffffffffffffffffffffffffffffffff021916908373ffffffffffffffffffffffffffffffffffffffff16021790555060408201518160020160006101000a81548173ffffffffffffffffffffffffffffffffffffffff021916908373ffffffffffffffffffffffffffffffffffffffff16021790555060608201518160030160006101000a81548173ffffffffffffffffffffffffffffffffffffffff021916908373ffffffffffffffffffffffffffffffffffffffff1602179055506080820151816004015560a0820151816005015560c0820151816006015560e0820151816007015550508473ffffffffffffffffffffffffffffffffffffffff168673ffffffffffffffffffffffffffffffffffffffff163373ffffffffffffffffffffffffffffffffffffffff167f03c1d0f791581c303a52224329aaa255ede53885133b76eb5ea0e1a51120d4ea8787874288604051610c90959493929190611c7a565b60405180910390a4505050505050565b600060405180606001604052808581526020018481526020018373ffffffffffffffffffffffffffffffffffffffff1681525090806001815401808255809150506001900390600052602060002090600302016000909190919091506000820151816000019081610d119190611ba8565b506020820151816001019081610d279190611ba8565b5060408201518160020160006101000a81548173ffffffffffffffffffffffffffffffffffffffff021916908373ffffffffffffffffffffffffffffffffffffffff16021790555050507f7ab7074f7826dda120af25c3924584f012f6cc3108c1185301c5461ac75f8007838383604051610da49392919061110e565b60405180910390a1505050565b60606001805480602002602001604051908101604052809291908181526020016000905b82821015610f1757838290600052602060002090600602016040518060c00160405290816000820160009054906101000a900473ffffffffffffffffffffffffffffffffffffffff1673ffffffffffffffffffffffffffffffffffffffff1673ffffffffffffffffffffffffffffffffffffffff16815260200160018201548152602001600282015481526020016003820154815260200160048201548152602001600582018054610e86906119cb565b80601f0160208091040260200160405190810160405280929190818152602001828054610eb2906119cb565b8015610eff5780601f10610ed457610100808354040283529160200191610eff565b820191906000526020600020905b815481529060010190602001808311610ee257829003601f168201915b50505050508152505081526020019060010190610dd5565b50505050905090565b6000604051905090565b600080fd5b600080fd5b6000819050919050565b610f4781610f34565b8114610f5257600080fd5b50565b600081359050610f6481610f3e565b92915050565b600060208284031215610f8057610f7f610f2a565b5b6000610f8e84828501610f55565b91505092915050565b600073ffffffffffffffffffffffffffffffffffffffff82169050919050565b6000610fc282610f97565b9050919050565b610fd281610fb7565b82525050565b610fe181610f34565b82525050565b6000819050919050565b610ffa81610fe7565b82525050565b600061010082019050611016600083018b610fc9565b611023602083018a610fc9565b6110306040830189610fc9565b61103d6060830188610fc9565b61104a6080830187610fd8565b61105760a0830186610fd8565b61106460c0830185610fd8565b61107160e0830184610ff1565b9998505050505050505050565b600081519050919050565b600082825260208201905092915050565b60005b838110156110b857808201518184015260208101905061109d565b60008484015250505050565b6000601f19601f8301169050919050565b60006110e08261107e565b6110ea8185611089565b93506110fa81856020860161109a565b611103816110c4565b840191505092915050565b6000606082019050818103600083015261112881866110d5565b9050818103602083015261113c81856110d5565b905061114b6040830184610fc9565b949350505050565b600060c0820190506111686000830189610fc9565b6111756020830188610fd8565b6111826040830187610fd8565b61118f6060830186610fd8565b61119c6080830185610fd8565b81810360a08301526111ae81846110d5565b9050979650505050505050565b600081519050919050565b600082825260208201905092915050565b6000819050602082019050919050565b6111f081610fb7565b82525050565b6111ff81610f34565b82525050565b61120e81610fe7565b82525050565b6101008201600082015161122b60008501826111e7565b50602082015161123e60208501826111e7565b50604082015161125160408501826111e7565b50606082015161126460608501826111e7565b50608082015161127760808501826111f6565b5060a082015161128a60a08501826111f6565b5060c082015161129d60c08501826111f6565b5060e08201516112b060e0850182611205565b50505050565b60006112c28383611214565b6101008301905092915050565b6000602082019050919050565b60006112e7826111bb565b6112f181856111c6565b93506112fc836111d7565b8060005b8381101561132d57815161131488826112b6565b975061131f836112cf565b925050600181019050611300565b5085935050505092915050565b6000602082019050818103600083015261135481846112dc565b905092915050565b61136581610fb7565b811461137057600080fd5b50565b6000813590506113828161135c565b92915050565b600080fd5b600080fd5b7f4e487b7100000000000000000000000000000000000000000000000000000000600052604160045260246000fd5b6113ca826110c4565b810181811067ffffffffffffffff821117156113e9576113e8611392565b5b80604052505050565b60006113fc610f20565b905061140882826113c1565b919050565b600067ffffffffffffffff82111561142857611427611392565b5b611431826110c4565b9050602081019050919050565b82818337600083830152505050565b600061146061145b8461140d565b6113f2565b90508281526020810184848401111561147c5761147b61138d565b5b61148784828561143e565b509392505050565b600082601f8301126114a4576114a3611388565b5b81356114b484826020860161144d565b91505092915050565b60008060008060008060c087890312156114da576114d9610f2a565b5b60006114e889828a01611373565b96505060206114f989828a01610f55565b955050604061150a89828a01610f55565b945050606061151b89828a01610f55565b935050608061152c89828a01610f55565b92505060a087013567ffffffffffffffff81111561154d5761154c610f2f565b5b61155989828a0161148f565b9150509295509295509295565b600081519050919050565b600082825260208201905092915050565b6000819050602082019050919050565b600082825260208201905092915050565b60006115ae8261107e565b6115b88185611592565b93506115c881856020860161109a565b6115d1816110c4565b840191505092915050565b600060608301600083015184820360008601526115f982826115a3565b9150506020830151848203602086015261161382826115a3565b915050604083015161162860408601826111e7565b508091505092915050565b600061163f83836115dc565b905092915050565b6000602082019050919050565b600061165f82611566565b6116698185611571565b93508360208202850161167b85611582565b8060005b858110156116b757848403895281516116988582611633565b94506116a383611647565b925060208a0199505060018101905061167f565b50829750879550505050505092915050565b600060208201905081810360008301526116e38184611654565b905092915050565b6116f481610fe7565b81146116ff57600080fd5b50565b600081359050611711816116eb565b92915050565b60008060008060008060c0878903121561173457611733610f2a565b5b600061174289828a01611373565b965050602061175389828a01611373565b955050604061176489828a01611373565b945050606061177589828a01610f55565b935050608061178689828a01610f55565b92505060a061179789828a01611702565b9150509295509295509295565b6000806000606084860312156117bd576117bc610f2a565b5b600084013567ffffffffffffffff8111156117db576117da610f2f565b5b6117e78682870161148f565b935050602084013567ffffffffffffffff81111561180857611807610f2f565b5b6118148682870161148f565b925050604061182586828701611373565b9150509250925092565b600081519050919050565b600082825260208201905092915050565b6000819050602082019050919050565b600060c08301600083015161187360008601826111e7565b50602083015161188660208601826111f6565b50604083015161189960408601826111f6565b5060608301516118ac60608601826111f6565b5060808301516118bf60808601826111f6565b5060a083015184820360a08601526118d782826115a3565b9150508091505092915050565b60006118f0838361185b565b905092915050565b6000602082019050919050565b60006119108261182f565b61191a818561183a565b93508360208202850161192c8561184b565b8060005b85811015611968578484038952815161194985826118e4565b9450611954836118f8565b925060208a01995050600181019050611930565b50829750879550505050505092915050565b600060208201905081810360008301526119948184611905565b905092915050565b7f4e487b7100000000000000000000000000000000000000000000000000000000600052602260045260246000fd5b600060028204905060018216806119e357607f821691505b6020821081036119f6576119f561199c565b5b50919050565b60008190508160005260206000209050919050565b60006020601f8301049050919050565b600082821b905092915050565b600060088302611a5e7fffffffffffffffffffffffffffffffffffffffffffffffffffffffffffffffff82611a21565b611a688683611a21565b95508019841693508086168417925050509392505050565b6000819050919050565b6000611aa5611aa0611a9b84610f34565b611a80565b610f34565b9050919050565b6000819050919050565b611abf83611a8a565b611ad3611acb82611aac565b848454611a2e565b825550505050565b600090565b611ae8611adb565b611af3818484611ab6565b505050565b5b81811015611b1757611b0c600082611ae0565b600181019050611af9565b5050565b601f821115611b5c57611b2d816119fc565b611b3684611a11565b81016020851015611b45578190505b611b59611b5185611a11565b830182611af8565b50505b505050565b600082821c905092915050565b6000611b7f60001984600802611b61565b1980831691505092915050565b6000611b988383611b6e565b9150826002028217905092915050565b611bb18261107e565b67ffffffffffffffff811115611bca57611bc9611392565b5b611bd482546119cb565b611bdf828285611b1b565b600060209050601f831160018114611c125760008415611c00578287015190505b611c0a8582611b8c565b865550611c72565b601f198416611c20866119fc565b60005b82811015611c4857848901518255600182019150602085019450602081019050611c23565b86831015611c655784890151611c61601f891682611b6e565b8355505b6001600288020188555050505b505050505050565b600060a082019050611c8f6000830188610fc9565b611c9c6020830187610fd8565b611ca96040830186610fd8565b611cb66060830185610fd8565b611cc36080830184610ff1565b969550505050505056fea26469706673582212208e5760cca82d9b7b398e38c08afe91e6668ee5dda0e747abc9006cba3d6e537664736f6c63430008140033",
  "linkReferences": {},
  "deployedLinkReferences": {}
}