{
  "_format": "hh-sol-artifact-1",
  "contractName": "DexAggregatorFactory",
  "sourceName": "contracts/DexAggregator.sol",
  "abi": [
    {
      "anonymous": false,
      "inputs": [
        {
          "indexed": true,
          "internalType": "address",
          "name": "contractAddress",
          "type": "address"
        }
      ],
      "name": "DexAggregatorDeployed",
      "type": "event"
    },
    {
      "inputs": [],
      "name": "deployDexAggregator",
      "outputs": [],
      "stateMutability": "nonpayable",
      "type": "function"
    },
    {
      "inputs": [],
      "name": "deployedDexAggregator",
      "outputs": [
        {
          "internalType": "address",
          "name": "",
          "type": "address"
        }
      ],
      "stateMutability": "view",
      "type": "function"
    },
    {
      "inputs": [],
      "name": "getDeployedDexAggregator",
      "outputs": [
        {
          "internalType": "address",
          "name": "",
          "type": "address"
        }
      ],
      "stateMutability": "view",
      "type": "function"
    }
  ],
  "bytecode": "0x608060405234801561001057600080fd5b50611cf9806100206000396000f3fe608060405234801561001057600080fd5b50600436106100415760003560e01c8063b3444b5e14610046578063c776335114610050578063e3c353201461006e575b600080fd5b61004e61008c565b005b61005861015f565b60405161006591906101fa565b60405180910390f35b610076610183565b60405161008391906101fa565b60405180910390f35b600060405161009a906101ac565b604051809103906000f0801580156100b6573d6000803e3d6000fd5b509050806000806101000a81548173ffffffffffffffffffffffffffffffffffffffff021916908373ffffffffffffffffffffffffffffffffffffffff16021790555060008054906101000a900473ffffffffffffffffffffffffffffffffffffffff1673ffffffffffffffffffffffffffffffffffffffff167f53d4f1ed4e7b35a34a54e97af06d5718d67d6976512524ed63dfc59bbd5f66b660405160405180910390a250565b60008054906101000a900473ffffffffffffffffffffffffffffffffffffffff1681565b60008060009054906101000a900473ffffffffffffffffffffffffffffffffffffffff16905090565b611aae8061021683390190565b600073ffffffffffffffffffffffffffffffffffffffff82169050919050565b60006101e4826101b9565b9050919050565b6101f4816101d9565b82525050565b600060208201905061020f60008301846101eb565b9291505056fe608060405234801561001057600080fd5b50611a8e806100206000396000f3fe608060405234801561001057600080fd5b50600436106100935760003560e01c806364b2a73c1161006657806364b2a73c14610150578063aa6ca8081461016e578063afefdf7b1461018c578063fa3d24f2146101a8578063fda493c9146101c457610093565b80630ddd03ba146100985780634f64b2be146100ce57806362660972146101005780636338a7c01461011c575b600080fd5b6100b260048036038101906100ad9190610e04565b6101e2565b6040516100c59796959493929190610e81565b60405180910390f35b6100e860048036038101906100e39190610e04565b6102b4565b6040516100f793929190610f80565b60405180910390f35b61011a60048036038101906101159190610ff1565b61041e565b005b61013660048036038101906101319190610e04565b610699565b60405161014795949392919061106c565b60405180910390f35b6101586106ff565b604051610165919061121a565b60405180910390f35b6101766108d4565b604051610183919061139f565b60405180910390f35b6101a660048036038101906101a191906113c1565b610aad565b005b6101c260048036038101906101bd9190611571565b610bcc565b005b6101cc610cdd565b6040516101d99190611713565b60405180910390f35b600281815481106101f257600080fd5b90600052602060002090600702016000915090508060000160009054906101000a900473ffffffffffffffffffffffffffffffffffffffff16908060010160009054906101000a900473ffffffffffffffffffffffffffffffffffffffff16908060020160009054906101000a900473ffffffffffffffffffffffffffffffffffffffff16908060030160009054906101000a900473ffffffffffffffffffffffffffffffffffffffff16908060040154908060050154908060060154905087565b600081815481106102c457600080fd5b90600052602060002090600302016000915090508060000180546102e790611764565b80601f016020809104026020016040519081016040528092919081815260200182805461031390611764565b80156103605780601f1061033557610100808354040283529160200191610360565b820191906000526020600020905b81548152906001019060200180831161034357829003601f168201915b50505050509080600101805461037590611764565b80601f01602080910402602001604051908101604052809291908181526020018280546103a190611764565b80156103ee5780601f106103c3576101008083540402835291602001916103ee565b820191906000526020600020905b8154815290600101906020018083116103d157829003601f168201915b5050505050908060020160009054906101000a900473ffffffffffffffffffffffffffffffffffffffff16905083565b60026040518060e001604052803373ffffffffffffffffffffffffffffffffffffffff1681526020018773ffffffffffffffffffffffffffffffffffffffff1681526020018673ffffffffffffffffffffffffffffffffffffffff1681526020018573ffffffffffffffffffffffffffffffffffffffff16815260200184815260200183815260200142815250908060018154018082558091505060019003906000526020600020906007020160009091909190915060008201518160000160006101000a81548173ffffffffffffffffffffffffffffffffffffffff021916908373ffffffffffffffffffffffffffffffffffffffff16021790555060208201518160010160006101000a81548173ffffffffffffffffffffffffffffffffffffffff021916908373ffffffffffffffffffffffffffffffffffffffff16021790555060408201518160020160006101000a81548173ffffffffffffffffffffffffffffffffffffffff021916908373ffffffffffffffffffffffffffffffffffffffff16021790555060608201518160030160006101000a81548173ffffffffffffffffffffffffffffffffffffffff021916908373ffffffffffffffffffffffffffffffffffffffff1602179055506080820151816004015560a0820151816005015560c0820151816006015550508373ffffffffffffffffffffffffffffffffffffffff168573ffffffffffffffffffffffffffffffffffffffff163373ffffffffffffffffffffffffffffffffffffffff167f48622207111e60c470744a6f806ceaa4ba7cf81a041ea2acd4ebd9dbde26efec8686864260405161068a9493929190611795565b60405180910390a45050505050565b600181815481106106a957600080fd5b90600052602060002090600502016000915090508060000160009054906101000a900473ffffffffffffffffffffffffffffffffffffffff16908060010154908060020154908060030154908060040154905085565b60606002805480602002602001604051908101604052809291908181526020016000905b828210156108cb57838290600052602060002090600702016040518060e00160405290816000820160009054906101000a900473ffffffffffffffffffffffffffffffffffffffff1673ffffffffffffffffffffffffffffffffffffffff1673ffffffffffffffffffffffffffffffffffffffff1681526020016001820160009054906101000a900473ffffffffffffffffffffffffffffffffffffffff1673ffffffffffffffffffffffffffffffffffffffff1673ffffffffffffffffffffffffffffffffffffffff1681526020016002820160009054906101000a900473ffffffffffffffffffffffffffffffffffffffff1673ffffffffffffffffffffffffffffffffffffffff1673ffffffffffffffffffffffffffffffffffffffff1681526020016003820160009054906101000a900473ffffffffffffffffffffffffffffffffffffffff1673ffffffffffffffffffffffffffffffffffffffff1673ffffffffffffffffffffffffffffffffffffffff168152602001600482015481526020016005820154815260200160068201548152505081526020019060010190610723565b50505050905090565b60606000805480602002602001604051908101604052809291908181526020016000905b82821015610aa4578382906000526020600020906003020160405180606001604052908160008201805461092b90611764565b80601f016020809104026020016040519081016040528092919081815260200182805461095790611764565b80156109a45780601f10610979576101008083540402835291602001916109a4565b820191906000526020600020905b81548152906001019060200180831161098757829003601f168201915b505050505081526020016001820180546109bd90611764565b80601f01602080910402602001604051908101604052809291908181526020018280546109e990611764565b8015610a365780601f10610a0b57610100808354040283529160200191610a36565b820191906000526020600020905b815481529060010190602001808311610a1957829003601f168201915b505050505081526020016002820160009054906101000a900473ffffffffffffffffffffffffffffffffffffffff1673ffffffffffffffffffffffffffffffffffffffff1673ffffffffffffffffffffffffffffffffffffffff1681525050815260200190600101906108f8565b50505050905090565b60016040518060a001604052808773ffffffffffffffffffffffffffffffffffffffff16815260200186815260200185815260200184815260200183815250908060018154018082558091505060019003906000526020600020906005020160009091909190915060008201518160000160006101000a81548173ffffffffffffffffffffffffffffffffffffffff021916908373ffffffffffffffffffffffffffffffffffffffff1602179055506020820151816001015560408201518160020155606082015181600301556080820151816004015550507f247cca4e070a26313c37fbcf4c949df05b68b15591445ed41e3667c25feec3588585858585604051610bbd95949392919061106c565b60405180910390a15050505050565b600060405180606001604052808581526020018481526020018373ffffffffffffffffffffffffffffffffffffffff1681525090806001815401808255809150506001900390600052602060002090600302016000909190919091506000820151816000019081610c3d9190611986565b506020820151816001019081610c539190611986565b5060408201518160020160006101000a81548173ffffffffffffffffffffffffffffffffffffffff021916908373ffffffffffffffffffffffffffffffffffffffff16021790555050507f7ab7074f7826dda120af25c3924584f012f6cc3108c1185301c5461ac75f8007838383604051610cd093929190610f80565b60405180910390a1505050565b60606001805480602002602001604051908101604052809291908181526020016000905b82821015610db157838290600052602060002090600502016040518060a00160405290816000820160009054906101000a900473ffffffffffffffffffffffffffffffffffffffff1673ffffffffffffffffffffffffffffffffffffffff1673ffffffffffffffffffffffffffffffffffffffff16815260200160018201548152602001600282015481526020016003820154815260200160048201548152505081526020019060010190610d01565b50505050905090565b6000604051905090565b600080fd5b600080fd5b6000819050919050565b610de181610dce565b8114610dec57600080fd5b50565b600081359050610dfe81610dd8565b92915050565b600060208284031215610e1a57610e19610dc4565b5b6000610e2884828501610def565b91505092915050565b600073ffffffffffffffffffffffffffffffffffffffff82169050919050565b6000610e5c82610e31565b9050919050565b610e6c81610e51565b82525050565b610e7b81610dce565b82525050565b600060e082019050610e96600083018a610e63565b610ea36020830189610e63565b610eb06040830188610e63565b610ebd6060830187610e63565b610eca6080830186610e72565b610ed760a0830185610e72565b610ee460c0830184610e72565b98975050505050505050565b600081519050919050565b600082825260208201905092915050565b60005b83811015610f2a578082015181840152602081019050610f0f565b60008484015250505050565b6000601f19601f8301169050919050565b6000610f5282610ef0565b610f5c8185610efb565b9350610f6c818560208601610f0c565b610f7581610f36565b840191505092915050565b60006060820190508181036000830152610f9a8186610f47565b90508181036020830152610fae8185610f47565b9050610fbd6040830184610e63565b949350505050565b610fce81610e51565b8114610fd957600080fd5b50565b600081359050610feb81610fc5565b92915050565b600080600080600060a0868803121561100d5761100c610dc4565b5b600061101b88828901610fdc565b955050602061102c88828901610fdc565b945050604061103d88828901610fdc565b935050606061104e88828901610def565b925050608061105f88828901610def565b9150509295509295909350565b600060a0820190506110816000830188610e63565b61108e6020830187610e72565b61109b6040830186610e72565b6110a86060830185610e72565b6110b56080830184610e72565b9695505050505050565b600081519050919050565b600082825260208201905092915050565b6000819050602082019050919050565b6110f481610e51565b82525050565b61110381610dce565b82525050565b60e08201600082015161111f60008501826110eb565b50602082015161113260208501826110eb565b50604082015161114560408501826110eb565b50606082015161115860608501826110eb565b50608082015161116b60808501826110fa565b5060a082015161117e60a08501826110fa565b5060c082015161119160c08501826110fa565b50505050565b60006111a38383611109565b60e08301905092915050565b6000602082019050919050565b60006111c7826110bf565b6111d181856110ca565b93506111dc836110db565b8060005b8381101561120d5781516111f48882611197565b97506111ff836111af565b9250506001810190506111e0565b5085935050505092915050565b6000602082019050818103600083015261123481846111bc565b905092915050565b600081519050919050565b600082825260208201905092915050565b6000819050602082019050919050565b600082825260208201905092915050565b600061128482610ef0565b61128e8185611268565b935061129e818560208601610f0c565b6112a781610f36565b840191505092915050565b600060608301600083015184820360008601526112cf8282611279565b915050602083015184820360208601526112e98282611279565b91505060408301516112fe60408601826110eb565b508091505092915050565b600061131583836112b2565b905092915050565b6000602082019050919050565b60006113358261123c565b61133f8185611247565b93508360208202850161135185611258565b8060005b8581101561138d578484038952815161136e8582611309565b94506113798361131d565b925060208a01995050600181019050611355565b50829750879550505050505092915050565b600060208201905081810360008301526113b9818461132a565b905092915050565b600080600080600060a086880312156113dd576113dc610dc4565b5b60006113eb88828901610fdc565b95505060206113fc88828901610def565b945050604061140d88828901610def565b935050606061141e88828901610def565b925050608061142f88828901610def565b9150509295509295909350565b600080fd5b600080fd5b7f4e487b7100000000000000000000000000000000000000000000000000000000600052604160045260246000fd5b61147e82610f36565b810181811067ffffffffffffffff8211171561149d5761149c611446565b5b80604052505050565b60006114b0610dba565b90506114bc8282611475565b919050565b600067ffffffffffffffff8211156114dc576114db611446565b5b6114e582610f36565b9050602081019050919050565b82818337600083830152505050565b600061151461150f846114c1565b6114a6565b9050828152602081018484840111156115305761152f611441565b5b61153b8482856114f2565b509392505050565b600082601f8301126115585761155761143c565b5b8135611568848260208601611501565b91505092915050565b60008060006060848603121561158a57611589610dc4565b5b600084013567ffffffffffffffff8111156115a8576115a7610dc9565b5b6115b486828701611543565b935050602084013567ffffffffffffffff8111156115d5576115d4610dc9565b5b6115e186828701611543565b92505060406115f286828701610fdc565b9150509250925092565b600081519050919050565b600082825260208201905092915050565b6000819050602082019050919050565b60a08201600082015161163e60008501826110eb565b50602082015161165160208501826110fa565b50604082015161166460408501826110fa565b50606082015161167760608501826110fa565b50608082015161168a60808501826110fa565b50505050565b600061169c8383611628565b60a08301905092915050565b6000602082019050919050565b60006116c0826115fc565b6116ca8185611607565b93506116d583611618565b8060005b838110156117065781516116ed8882611690565b97506116f8836116a8565b9250506001810190506116d9565b5085935050505092915050565b6000602082019050818103600083015261172d81846116b5565b905092915050565b7f4e487b7100000000000000000000000000000000000000000000000000000000600052602260045260246000fd5b6000600282049050600182168061177c57607f821691505b60208210810361178f5761178e611735565b5b50919050565b60006080820190506117aa6000830187610e63565b6117b76020830186610e72565b6117c46040830185610e72565b6117d16060830184610e72565b95945050505050565b60008190508160005260206000209050919050565b60006020601f8301049050919050565b600082821b905092915050565b60006008830261183c7fffffffffffffffffffffffffffffffffffffffffffffffffffffffffffffffff826117ff565b61184686836117ff565b95508019841693508086168417925050509392505050565b6000819050919050565b600061188361187e61187984610dce565b61185e565b610dce565b9050919050565b6000819050919050565b61189d83611868565b6118b16118a98261188a565b84845461180c565b825550505050565b600090565b6118c66118b9565b6118d1818484611894565b505050565b5b818110156118f5576118ea6000826118be565b6001810190506118d7565b5050565b601f82111561193a5761190b816117da565b611914846117ef565b81016020851015611923578190505b61193761192f856117ef565b8301826118d6565b50505b505050565b600082821c905092915050565b600061195d6000198460080261193f565b1980831691505092915050565b6000611976838361194c565b9150826002028217905092915050565b61198f82610ef0565b67ffffffffffffffff8111156119a8576119a7611446565b5b6119b28254611764565b6119bd8282856118f9565b600060209050601f8311600181146119f057600084156119de578287015190505b6119e8858261196a565b865550611a50565b601f1984166119fe866117da565b60005b82811015611a2657848901518255600182019150602085019450602081019050611a01565b86831015611a435784890151611a3f601f89168261194c565b8355505b6001600288020188555050505b50505050505056fea26469706673582212206ac71a0235fa4928c345e597846f559a76ae1ee62a5215e76c4e9525957e1e8f64736f6c63430008140033a26469706673582212209b220ce2326dfa59abe844a685000254e5394df73e897aa660f72e8e5b6cf69d64736f6c63430008140033",
  "linkReferences": {},
  "deployedLinkReferences": {}
}