{
  "_format": "hh-sol-artifact-1",
  "contractName": "DexAggregator",
  "sourceName": "contracts/DexAggregator.sol",
  "abi": [
    {
      "inputs": [
        {
          "internalType": "address",
          "name": "_ammAddress",
          "type": "address"
        },
        {
          "internalType": "uint256",
          "name": "_makerFee",
          "type": "uint256"
        },
        {
          "internalType": "uint256",
          "name": "_takerFee",
          "type": "uint256"
        },
        {
          "internalType": "uint256",
          "name": "_liquidityToken1",
          "type": "uint256"
        },
        {
          "internalType": "uint256",
          "name": "_liquidityToken2",
          "type": "uint256"
        }
      ],
      "name": "addDex",
      "outputs": [],
      "stateMutability": "nonpayable",
      "type": "function"
    },
    {
      "inputs": [
        {
          "internalType": "string",
          "name": "_name",
          "type": "string"
        },
        {
          "internalType": "string",
          "name": "_symbol",
          "type": "string"
        },
        {
          "internalType": "address",
          "name": "_tokenAddress",
          "type": "address"
        }
      ],
      "name": "addToken",
      "outputs": [],
      "stateMutability": "nonpayable",
      "type": "function"
    },
    {
      "inputs": [
        {
          "internalType": "uint256",
          "name": "",
          "type": "uint256"
        }
      ],
      "name": "dexes",
      "outputs": [
        {
          "internalType": "address",
          "name": "ammAddress",
          "type": "address"
        },
        {
          "internalType": "uint256",
          "name": "makerFee",
          "type": "uint256"
        },
        {
          "internalType": "uint256",
          "name": "takerFee",
          "type": "uint256"
        },
        {
          "internalType": "uint256",
          "name": "liquidityToken1",
          "type": "uint256"
        },
        {
          "internalType": "uint256",
          "name": "liquidityToken2",
          "type": "uint256"
        }
      ],
      "stateMutability": "view",
      "type": "function"
    },
    {
      "inputs": [],
      "name": "getDexes",
      "outputs": [
        {
          "components": [
            {
              "internalType": "address",
              "name": "ammAddress",
              "type": "address"
            },
            {
              "internalType": "uint256",
              "name": "makerFee",
              "type": "uint256"
            },
            {
              "internalType": "uint256",
              "name": "takerFee",
              "type": "uint256"
            },
            {
              "internalType": "uint256",
              "name": "liquidityToken1",
              "type": "uint256"
            },
            {
              "internalType": "uint256",
              "name": "liquidityToken2",
              "type": "uint256"
            }
          ],
          "internalType": "struct DexAggregator.Dex[]",
          "name": "",
          "type": "tuple[]"
        }
      ],
      "stateMutability": "view",
      "type": "function"
    },
    {
      "inputs": [],
      "name": "getTokens",
      "outputs": [
        {
          "components": [
            {
              "internalType": "string",
              "name": "name",
              "type": "string"
            },
            {
              "internalType": "string",
              "name": "symbol",
              "type": "string"
            },
            {
              "internalType": "address",
              "name": "tokenAddress",
              "type": "address"
            }
          ],
          "internalType": "struct DexAggregator.Token[]",
          "name": "",
          "type": "tuple[]"
        }
      ],
      "stateMutability": "view",
      "type": "function"
    },
    {
      "inputs": [
        {
          "internalType": "uint256",
          "name": "",
          "type": "uint256"
        }
      ],
      "name": "tokens",
      "outputs": [
        {
          "internalType": "string",
          "name": "name",
          "type": "string"
        },
        {
          "internalType": "string",
          "name": "symbol",
          "type": "string"
        },
        {
          "internalType": "address",
          "name": "tokenAddress",
          "type": "address"
        }
      ],
      "stateMutability": "view",
      "type": "function"
    }
  ],
  "bytecode": "0x608060405234801561001057600080fd5b506111c3806100206000396000f3fe608060405234801561001057600080fd5b50600436106100625760003560e01c80634f64b2be146100675780636338a7c014610099578063aa6ca808146100cd578063afefdf7b146100eb578063fa3d24f214610107578063fda493c914610123575b600080fd5b610081600480360381019061007c91906107c7565b610141565b604051610090939291906108c5565b60405180910390f35b6100b360048036038101906100ae91906107c7565b6102ab565b6040516100c4959493929190610919565b60405180910390f35b6100d5610311565b6040516100e29190610ade565b60405180910390f35b61010560048036038101906101009190610b2c565b6104ea565b005b610121600480360381019061011c9190610cdc565b6105ca565b005b61012b6106a0565b6040516101389190610e8d565b60405180910390f35b6000818154811061015157600080fd5b906000526020600020906003020160009150905080600001805461017490610ede565b80601f01602080910402602001604051908101604052809291908181526020018280546101a090610ede565b80156101ed5780601f106101c2576101008083540402835291602001916101ed565b820191906000526020600020905b8154815290600101906020018083116101d057829003601f168201915b50505050509080600101805461020290610ede565b80601f016020809104026020016040519081016040528092919081815260200182805461022e90610ede565b801561027b5780601f106102505761010080835404028352916020019161027b565b820191906000526020600020905b81548152906001019060200180831161025e57829003601f168201915b5050505050908060020160009054906101000a900473ffffffffffffffffffffffffffffffffffffffff16905083565b600181815481106102bb57600080fd5b90600052602060002090600502016000915090508060000160009054906101000a900473ffffffffffffffffffffffffffffffffffffffff16908060010154908060020154908060030154908060040154905085565b60606000805480602002602001604051908101604052809291908181526020016000905b828210156104e1578382906000526020600020906003020160405180606001604052908160008201805461036890610ede565b80601f016020809104026020016040519081016040528092919081815260200182805461039490610ede565b80156103e15780601f106103b6576101008083540402835291602001916103e1565b820191906000526020600020905b8154815290600101906020018083116103c457829003601f168201915b505050505081526020016001820180546103fa90610ede565b80601f016020809104026020016040519081016040528092919081815260200182805461042690610ede565b80156104735780601f1061044857610100808354040283529160200191610473565b820191906000526020600020905b81548152906001019060200180831161045657829003601f168201915b505050505081526020016002820160009054906101000a900473ffffffffffffffffffffffffffffffffffffffff1673ffffffffffffffffffffffffffffffffffffffff1673ffffffffffffffffffffffffffffffffffffffff168152505081526020019060010190610335565b50505050905090565b60016040518060a001604052808773ffffffffffffffffffffffffffffffffffffffff16815260200186815260200185815260200184815260200183815250908060018154018082558091505060019003906000526020600020906005020160009091909190915060008201518160000160006101000a81548173ffffffffffffffffffffffffffffffffffffffff021916908373ffffffffffffffffffffffffffffffffffffffff1602179055506020820151816001015560408201518160020155606082015181600301556080820151816004015550505050505050565b600060405180606001604052808581526020018481526020018373ffffffffffffffffffffffffffffffffffffffff168152509080600181540180825580915050600190039060005260206000209060030201600090919091909150600082015181600001908161063b91906110bb565b50602082015181600101908161065191906110bb565b5060408201518160020160006101000a81548173ffffffffffffffffffffffffffffffffffffffff021916908373ffffffffffffffffffffffffffffffffffffffff1602179055505050505050565b60606001805480602002602001604051908101604052809291908181526020016000905b8282101561077457838290600052602060002090600502016040518060a00160405290816000820160009054906101000a900473ffffffffffffffffffffffffffffffffffffffff1673ffffffffffffffffffffffffffffffffffffffff1673ffffffffffffffffffffffffffffffffffffffff168152602001600182015481526020016002820154815260200160038201548152602001600482015481525050815260200190600101906106c4565b50505050905090565b6000604051905090565b600080fd5b600080fd5b6000819050919050565b6107a481610791565b81146107af57600080fd5b50565b6000813590506107c18161079b565b92915050565b6000602082840312156107dd576107dc610787565b5b60006107eb848285016107b2565b91505092915050565b600081519050919050565b600082825260208201905092915050565b60005b8381101561082e578082015181840152602081019050610813565b60008484015250505050565b6000601f19601f8301169050919050565b6000610856826107f4565b61086081856107ff565b9350610870818560208601610810565b6108798161083a565b840191505092915050565b600073ffffffffffffffffffffffffffffffffffffffff82169050919050565b60006108af82610884565b9050919050565b6108bf816108a4565b82525050565b600060608201905081810360008301526108df818661084b565b905081810360208301526108f3818561084b565b905061090260408301846108b6565b949350505050565b61091381610791565b82525050565b600060a08201905061092e60008301886108b6565b61093b602083018761090a565b610948604083018661090a565b610955606083018561090a565b610962608083018461090a565b9695505050505050565b600081519050919050565b600082825260208201905092915050565b6000819050602082019050919050565b600082825260208201905092915050565b60006109b4826107f4565b6109be8185610998565b93506109ce818560208601610810565b6109d78161083a565b840191505092915050565b6109eb816108a4565b82525050565b60006060830160008301518482036000860152610a0e82826109a9565b91505060208301518482036020860152610a2882826109a9565b9150506040830151610a3d60408601826109e2565b508091505092915050565b6000610a5483836109f1565b905092915050565b6000602082019050919050565b6000610a748261096c565b610a7e8185610977565b935083602082028501610a9085610988565b8060005b85811015610acc5784840389528151610aad8582610a48565b9450610ab883610a5c565b925060208a01995050600181019050610a94565b50829750879550505050505092915050565b60006020820190508181036000830152610af88184610a69565b905092915050565b610b09816108a4565b8114610b1457600080fd5b50565b600081359050610b2681610b00565b92915050565b600080600080600060a08688031215610b4857610b47610787565b5b6000610b5688828901610b17565b9550506020610b67888289016107b2565b9450506040610b78888289016107b2565b9350506060610b89888289016107b2565b9250506080610b9a888289016107b2565b9150509295509295909350565b600080fd5b600080fd5b7f4e487b7100000000000000000000000000000000000000000000000000000000600052604160045260246000fd5b610be98261083a565b810181811067ffffffffffffffff82111715610c0857610c07610bb1565b5b80604052505050565b6000610c1b61077d565b9050610c278282610be0565b919050565b600067ffffffffffffffff821115610c4757610c46610bb1565b5b610c508261083a565b9050602081019050919050565b82818337600083830152505050565b6000610c7f610c7a84610c2c565b610c11565b905082815260208101848484011115610c9b57610c9a610bac565b5b610ca6848285610c5d565b509392505050565b600082601f830112610cc357610cc2610ba7565b5b8135610cd3848260208601610c6c565b91505092915050565b600080600060608486031215610cf557610cf4610787565b5b600084013567ffffffffffffffff811115610d1357610d1261078c565b5b610d1f86828701610cae565b935050602084013567ffffffffffffffff811115610d4057610d3f61078c565b5b610d4c86828701610cae565b9250506040610d5d86828701610b17565b9150509250925092565b600081519050919050565b600082825260208201905092915050565b6000819050602082019050919050565b610d9c81610791565b82525050565b60a082016000820151610db860008501826109e2565b506020820151610dcb6020850182610d93565b506040820151610dde6040850182610d93565b506060820151610df16060850182610d93565b506080820151610e046080850182610d93565b50505050565b6000610e168383610da2565b60a08301905092915050565b6000602082019050919050565b6000610e3a82610d67565b610e448185610d72565b9350610e4f83610d83565b8060005b83811015610e80578151610e678882610e0a565b9750610e7283610e22565b925050600181019050610e53565b5085935050505092915050565b60006020820190508181036000830152610ea78184610e2f565b905092915050565b7f4e487b7100000000000000000000000000000000000000000000000000000000600052602260045260246000fd5b60006002820490506001821680610ef657607f821691505b602082108103610f0957610f08610eaf565b5b50919050565b60008190508160005260206000209050919050565b60006020601f8301049050919050565b600082821b905092915050565b600060088302610f717fffffffffffffffffffffffffffffffffffffffffffffffffffffffffffffffff82610f34565b610f7b8683610f34565b95508019841693508086168417925050509392505050565b6000819050919050565b6000610fb8610fb3610fae84610791565b610f93565b610791565b9050919050565b6000819050919050565b610fd283610f9d565b610fe6610fde82610fbf565b848454610f41565b825550505050565b600090565b610ffb610fee565b611006818484610fc9565b505050565b5b8181101561102a5761101f600082610ff3565b60018101905061100c565b5050565b601f82111561106f5761104081610f0f565b61104984610f24565b81016020851015611058578190505b61106c61106485610f24565b83018261100b565b50505b505050565b600082821c905092915050565b600061109260001984600802611074565b1980831691505092915050565b60006110ab8383611081565b9150826002028217905092915050565b6110c4826107f4565b67ffffffffffffffff8111156110dd576110dc610bb1565b5b6110e78254610ede565b6110f282828561102e565b600060209050601f8311600181146111255760008415611113578287015190505b61111d858261109f565b865550611185565b601f19841661113386610f0f565b60005b8281101561115b57848901518255600182019150602085019450602081019050611136565b868310156111785784890151611174601f891682611081565b8355505b6001600288020188555050505b50505050505056fea264697066735822122090fc82cbdd9a8ad0046b2294c5ea909737c6294c9eb788051a810e84a7a3c82164736f6c63430008140033",
  "linkReferences": {},
  "deployedLinkReferences": {}
}