{
  "_format": "hh-sol-artifact-1",
  "contractName": "Registry",
  "sourceName": "contracts/Registry.sol",
  "abi": [
    {
      "anonymous": false,
      "inputs": [
        {
          "indexed": true,
          "internalType": "string",
          "name": "category",
          "type": "string"
        },
        {
          "indexed": true,
          "internalType": "address",
          "name": "ammAddress",
          "type": "address"
        }
      ],
      "name": "AMMRegistered",
      "type": "event"
    },
    {
      "anonymous": false,
      "inputs": [
        {
          "indexed": true,
          "internalType": "string",
          "name": "name",
          "type": "string"
        },
        {
          "indexed": true,
          "internalType": "address",
          "name": "contractAddress",
          "type": "address"
        }
      ],
      "name": "Registered",
      "type": "event"
    },
    {
      "anonymous": false,
      "inputs": [
        {
          "indexed": true,
          "internalType": "string",
          "name": "category",
          "type": "string"
        },
        {
          "indexed": true,
          "internalType": "address",
          "name": "tokenAddress",
          "type": "address"
        }
      ],
      "name": "TokenRegistered",
      "type": "event"
    },
    {
      "inputs": [
        {
          "internalType": "string",
          "name": "category",
          "type": "string"
        }
      ],
      "name": "getAMMs",
      "outputs": [
        {
          "internalType": "address[]",
          "name": "",
          "type": "address[]"
        }
      ],
      "stateMutability": "view",
      "type": "function"
    },
    {
      "inputs": [
        {
          "internalType": "string",
          "name": "name",
          "type": "string"
        }
      ],
      "name": "getAddress",
      "outputs": [
        {
          "internalType": "address",
          "name": "",
          "type": "address"
        }
      ],
      "stateMutability": "view",
      "type": "function"
    },
    {
      "inputs": [
        {
          "internalType": "string",
          "name": "category",
          "type": "string"
        }
      ],
      "name": "getTokens",
      "outputs": [
        {
          "internalType": "address[]",
          "name": "",
          "type": "address[]"
        }
      ],
      "stateMutability": "view",
      "type": "function"
    },
    {
      "inputs": [
        {
          "internalType": "string",
          "name": "name",
          "type": "string"
        },
        {
          "internalType": "address",
          "name": "contractAddress",
          "type": "address"
        }
      ],
      "name": "register",
      "outputs": [],
      "stateMutability": "nonpayable",
      "type": "function"
    },
    {
      "inputs": [
        {
          "internalType": "string",
          "name": "category",
          "type": "string"
        },
        {
          "internalType": "address",
          "name": "ammAddress",
          "type": "address"
        }
      ],
      "name": "registerAMM",
      "outputs": [],
      "stateMutability": "nonpayable",
      "type": "function"
    },
    {
      "inputs": [
        {
          "internalType": "string",
          "name": "category",
          "type": "string"
        },
        {
          "internalType": "address",
          "name": "tokenAddress",
          "type": "address"
        }
      ],
      "name": "registerToken",
      "outputs": [],
      "stateMutability": "nonpayable",
      "type": "function"
    }
  ],
  "bytecode": "0x608060405234801561001057600080fd5b506109b2806100206000396000f3fe608060405234801561001057600080fd5b50600436106100625760003560e01c80631e59c529146100675780631ef748351461008357806369f667ed146100b3578063a65dd261146100cf578063a87fdaf0146100ff578063bf40fac11461011b575b600080fd5b610081600480360381019061007c91906106f0565b61014b565b005b61009d60048036038101906100989190610750565b6102b9565b6040516100aa919061085b565b60405180910390f35b6100cd60048036038101906100c891906106f0565b610368565b005b6100e960048036038101906100e49190610750565b610449565b6040516100f6919061085b565b60405180910390f35b610119600480360381019061011491906106f0565b6104f8565b005b61013560048036038101906101309190610750565b6105d9565b604051610142919061088c565b60405180910390f35b600073ffffffffffffffffffffffffffffffffffffffff16600084846040516101759291906108e6565b908152602001604051809103902060009054906101000a900473ffffffffffffffffffffffffffffffffffffffff1673ffffffffffffffffffffffffffffffffffffffff16146101fa576040517f08c379a00000000000000000000000000000000000000000000000000000000081526004016101f19061095c565b60405180910390fd5b806000848460405161020d9291906108e6565b908152602001604051809103902060006101000a81548173ffffffffffffffffffffffffffffffffffffffff021916908373ffffffffffffffffffffffffffffffffffffffff1602179055508073ffffffffffffffffffffffffffffffffffffffff1683836040516102809291906108e6565b60405180910390207f50f74ca45caac8020b8d891bd13ea5a2d79564986ee6a839f0d914896388322d60405160405180910390a3505050565b6060600183836040516102cd9291906108e6565b908152602001604051809103902080548060200260200160405190810160405280929190818152602001828054801561035b57602002820191906000526020600020905b8160009054906101000a900473ffffffffffffffffffffffffffffffffffffffff1673ffffffffffffffffffffffffffffffffffffffff1681526020019060010190808311610311575b5050505050905092915050565b6002838360405161037a9291906108e6565b9081526020016040518091039020819080600181540180825580915050600190039060005260206000200160009091909190916101000a81548173ffffffffffffffffffffffffffffffffffffffff021916908373ffffffffffffffffffffffffffffffffffffffff1602179055508073ffffffffffffffffffffffffffffffffffffffff1683836040516104109291906108e6565b60405180910390207f0fd4145e0bd1305ef15c2adcf308e601b33f5ccd4d010ae8270aa596a6b2d59460405160405180910390a3505050565b60606002838360405161045d9291906108e6565b90815260200160405180910390208054806020026020016040519081016040528092919081815260200182805480156104eb57602002820191906000526020600020905b8160009054906101000a900473ffffffffffffffffffffffffffffffffffffffff1673ffffffffffffffffffffffffffffffffffffffff16815260200190600101908083116104a1575b5050505050905092915050565b6001838360405161050a9291906108e6565b9081526020016040518091039020819080600181540180825580915050600190039060005260206000200160009091909190916101000a81548173ffffffffffffffffffffffffffffffffffffffff021916908373ffffffffffffffffffffffffffffffffffffffff1602179055508073ffffffffffffffffffffffffffffffffffffffff1683836040516105a09291906108e6565b60405180910390207f22bc22f49328fa1fd31a793b9e25bfa649507e993d441b0b8f3af2cde205f5fb60405160405180910390a3505050565b60008083836040516105ec9291906108e6565b908152602001604051809103902060009054906101000a900473ffffffffffffffffffffffffffffffffffffffff16905092915050565b600080fd5b600080fd5b600080fd5b600080fd5b600080fd5b60008083601f8401126106525761065161062d565b5b8235905067ffffffffffffffff81111561066f5761066e610632565b5b60208301915083600182028301111561068b5761068a610637565b5b9250929050565b600073ffffffffffffffffffffffffffffffffffffffff82169050919050565b60006106bd82610692565b9050919050565b6106cd816106b2565b81146106d857600080fd5b50565b6000813590506106ea816106c4565b92915050565b60008060006040848603121561070957610708610623565b5b600084013567ffffffffffffffff81111561072757610726610628565b5b6107338682870161063c565b93509350506020610746868287016106db565b9150509250925092565b6000806020838503121561076757610766610623565b5b600083013567ffffffffffffffff81111561078557610784610628565b5b6107918582860161063c565b92509250509250929050565b600081519050919050565b600082825260208201905092915050565b6000819050602082019050919050565b6107d2816106b2565b82525050565b60006107e483836107c9565b60208301905092915050565b6000602082019050919050565b60006108088261079d565b61081281856107a8565b935061081d836107b9565b8060005b8381101561084e57815161083588826107d8565b9750610840836107f0565b925050600181019050610821565b5085935050505092915050565b6000602082019050818103600083015261087581846107fd565b905092915050565b610886816106b2565b82525050565b60006020820190506108a1600083018461087d565b92915050565b600081905092915050565b82818337600083830152505050565b60006108cd83856108a7565b93506108da8385846108b2565b82840190509392505050565b60006108f38284866108c1565b91508190509392505050565b600082825260208201905092915050565b7f4e616d6520616c72656164792072656769737465726564000000000000000000600082015250565b60006109466017836108ff565b915061095182610910565b602082019050919050565b6000602082019050818103600083015261097581610939565b905091905056fea264697066735822122007a586caa25ea2807b2634b52e06c471eef7ff210baf0a2366430e8b96e28a2b64736f6c63430008140033",
  "linkReferences": {},
  "deployedLinkReferences": {}
}